:020000040800F2
:10000000201B0020A10F0008492900084B290008E7
:100010004F29000853290008572900080000000054
:100020000000000000000000000000005B29000844
:100030005D290008000000005F290008B90F0008D2
:10004000BB0F0008BB0F0008BB0F0008BB0F000868
:10005000BB0F0008BB0F0008BB0F0008BB0F000858
:10006000BB0F0008BB0F0008BB0F0008BB0F000848
:10007000BB0F0008BB0F0008BB0F0008BB0F000838
:10008000BB0F0008BB0F0008BB0F0008BB0F000828
:10009000BB0F0008BB0F0008BB0F0008BB0F000818
:1000A000BB0F0008BB0F0008BB0F0008BB0F000808
:1000B000BB0F0008710D0008BB0F0008BB0F000844
:1000C000BB0F0008BB0F0008BB0F0008BB0F0008E8
:1000D000BB0F0008BB0F0008BB0F0008BB0F0008D8
:1000E000BB0F0008BB0F0008BB0F0008BB0F0008C8
:1000F000BB0F0008BB0F0008BB0F0008BB0F0008B8
:10010000BB0F0008BB0F0008BB0F0008BB0F0008A7
:10011000BB0F0008BB0F0008BB0F0008BB0F000897
:10012000BB0F0008BB0F0008BB0F0008BB0F000887
:10013000BB0F0008BB0F0008BB0F0008BB0F000877
:10014000BB0F0008BB0F0008BB0F0008BB0F000867
:10015000BB0F0008BB0F0008BB0F0008BB0F000857
:10016000BB0F0008BB0F0008BB0F0008BB0F000847
:10017000BB0F0008BB0F0008BB0F0008BB0F000837
:10018000BB0F0008BB0F000800F002F800F05CF89D
:100190000AA090E8000C82448344AAF10107DA45E2
:1001A00001D100F051F8AFF2090EBAE80F0013F0D8
:1001B000010F18BFFB1A43F001031847382A00004B
:1001C000582A00000A444FF0000C10F8013B13F0CD
:1001D000070408BF10F8014B1D1108BF10F8015BA0
:1001E000641E05D010F8016B641E01F8016BF9D193
:1001F00013F0080F1EBF10F8014BAD1C0C1B09D1EA
:100200006D1E58BF01F801CBFAD505E014F8016B5B
:1002100001F8016B6D1EF9D59142D6D370470000ED
:100220000023002400250026103A28BF78C1FBD8FF
:10023000520728BF30C148BF0B6070471FB502F09E
:10024000D4FC1FBD10B510BD02F095FC1146FFF7A0
:10025000F5FF02F081FA02F0B3FC03B4FFF7F2FFFE
:1002600003BC02F0BBFC00001CB50121082001F01A
:100270004BFA01208DF8040000208DF806004FF2A3
:10028000F370009001208DF8070003208DF8050021
:100290006946FC4800F09AFF0121022001F034FA7F
:1002A00001208DF8040000208DF806000220009047
:1002B00001208DF8070003208DF805006946F248FB
:1002C00000F084FF0121084601F01EFA01208DF89C
:1002D000040000208DF80600E020009001208DF839
:1002E000070003208DF805006946E84800F06EFF1E
:1002F0000121102001F008FA01208DF804000020EF
:100300008DF806004FF68070009001208DF80700F0
:1003100003208DF805006946DD4800F057FF1CBD3D
:1003200000F00102DB4B1A60C0F34002DA4BC3F865
:10033000B022C0F38002D74B08331A60C0F3C0026A
:100340001B1D1A60C0F300121B1D1A60C0F340127F
:10035000D24B1A60C0F380121B1D1A60C2091B1D0C
:100360001A6001F00102CD4B18331A60C1F340024C
:100370001B1D1A60C1F38002C84B203B1A60C1F3F9
:10038000C0021B1D1A60C1F30012C24B103B1A6061
:10039000C1F340121B1D1A60C1F380121B1D1A60AD
:1003A000CA091B1D1A600022BC4B0C3B1A600122BB
:1003B000BB4BC3F89422704730B504460D4601206C
:1003C000B6491431086029462046FFF7A9FF30BD21
:1003D00010B504460120B14914310860E1B2C4F3FC
:1003E0000720FFF79DFF10BD10B504460020AB4964
:1003F00014310860E1B2C4F30720FFF791FF10BD8C
:1004000030B505460C462846FFF7EEFF2046FFF7BD
:10041000DFFF30BDF0B507460C4615461E462A20C4
:10042000FFF7E2FF380AFFF7D3FF3846FFF7D0FFA8
:10043000280AFFF7CDFF2846FFF7CAFF2B20FFF75A
:10044000D3FF200AFFF7C4FF2046FFF7C1FF300AA1
:10045000FFF7BEFF3046FFF7BBFF2C20FFF7C4FFBE
:10046000F0BD30B504460D462B46224629462046AF
:10047000FFF7D0FF8B480088FFF7AAFF30BD2DE9BA
:10048000F04306460F469046002445460320A0EB65
:10049000480948E03A1B91B2721B90B2FFF7E1FFA6
:1004A0003A1B91B2721990B2FFF7DBFF7A1991B241
:1004B000321B90B2FFF7D5FF3A1B91B2721B90B27C
:1004C000FFF7CFFF7A1B91B2321B90B2FFF7C9FF43
:1004D0003A1991B2721990B2FFF7C3FF7A1B91B229
:1004E000321990B2FFF7BDFF7A1991B2321990B26A
:1004F000FFF7B7FF3A1991B2721B90B2FFF7B1FF45
:10050000641CB9F1000F03DAA000801D814404E0EF
:10051000601B80000A3081446D1E7A1991B2321935
:1005200090B2FFF79EFFAC42B4DDBDE8F0832DE949
:10053000FF4F84B081468A460020039002900698BF
:10054000A0EB09050798A0EB0A06CDF80490CDF8BA
:1005500000A0002D01DD012705E00DB9002702E014
:100560004FF0FF376D42002E02DD4FF0010806E02C
:1005700016B94FF0000802E04FF0FF387642B5425E
:1005800001DD2C4600E034464FF0000B21E0009ADC
:1005900091B2019A90B2FFF764FF03982844039048
:1005A0000298304402900398A04205DD0398001B96
:1005B00003900198384401900298A04205DD02980A
:1005C000001B02900098404400900BF101001FFABC
:1005D00080FB601C8345DADD08B0BDE8F08FF0B524
:1005E00004460D4616461F462B46324629462046EF
:1005F000FFF79DFF3B46224629462046FFF797FF1F
:100600003B46324639462046FFF791FF3B4632468D
:1006100029463046FFF78BFFF0BD2DE9F047044631
:100620000D4616461F46DDF820A03B4632462946B9
:100630002046FFF7EFFEA8460EE0A14606E0504632
:10064000FFF7C6FE09F101001FFA80F9B145F6DD9A
:1006500008F101001FFA80F8B845EEDDBDE8F0872B
:1006600078B504460D460F4800886E1CB3B2661C70
:10067000B2B26E1EB1B2661E0090B0B2FFF7CDFFEF
:1006800078BD0000000C024000040240000002405F
:1006900000100240AC02424200004242A0824142AD
:1006A00000804142020000202DE9FF4F05460F4621
:1006B0001646AA46FE48B0F800B0E02D02DCB7F5B9
:1006C000987F01DDBDE8FF8FA6F12000C6B207F1DB
:1006D0000F03EA1D39462846FFF79CFE039858BBD6
:1006E000002426E004EB0610F24911F800904FF0C8
:1006F000000816E009F0010018B1ED48A0F800B0BC
:1007000003E0ED480088EA490880E9480088FFF7DF
:100710005FFE4FEA6909681C85B208F1010000F02C
:10072000FF08B8F1080FE5DB5546781C87B2601C5E
:10073000C4B2102CD6DB20E000241CE004EB061031
:10074000DC4911F800904FF000080FE009F00100BB
:1007500030B13A1991B205EB080290B2FFF781FE71
:100760004FEA690908F1010000F0FF08B8F1080F2D
:10077000ECDB601CC4B2102CE0DBCD48A0F800B06C
:1007800000BF9FE710B50246012000E050430B1E5A
:10079000A1F10104E1B2F9D110BD2DE9F043064603
:1007A000894617461D46002419E0281B401EC1B289
:1007B0000A20FFF7E7FFB7FBF0F00A21B0FBF1F2E8
:1007C00001FB120808F13001CAB2082101FB0461E3
:1007D00088B200234946FFF767FF601CC4B2AC42F1
:1007E000E3DBBDE8F0832DE9F0470646894617466E
:1007F0001D464FF0000ABFB200242FE0281B401E08
:10080000C1B20A20FFF7BEFFB7FBF0F00A21B0FB30
:10081000F1F201FB1208BAF1000F11D1681EA042DB
:100820000EDDB8F1000F09D1082101FB046188B287
:10083000002320224946FFF737FF0DE04FF0010A61
:1008400008F13001CAB2082101FB046188B200231B
:100850004946FFF729FF00BF601CC4B2AC42CDDBA4
:10086000BDE8F0872DE9F0410446271204F0FF08A7
:1008700040F23F13EF2200210846FFF7CBFD002591
:100880000CE0002605E041463846FFF795FD701C58
:1008900086B2B6F5A07FF6DB681C85B2F02DF0DBE2
:1008A000BDE8F08170B505460E46144619E0E02D0E
:1008B00003DD002506F1100086B2B6F5987F06DD4F
:1008C0000020054606464FF47840FFF7CBFF22781C
:1008D000002331462846FFF7E7FE05F1080085B200
:1008E000641C20780028E2D170BD10B50120734946
:1008F00008607348D0F89C0218BB00210846FFF737
:100900007FFD70A200210846FFF7CCFF00231A46A6
:1009100019461846FFF767FF00231A46194618467E
:10092000FFF73BFF00210846FFF79AFE00231A4617
:1009300019461846FFF753FE002211461046FFF7EE
:100940009EFD01205D490C3908605D49C1F89402A3
:1009500000205D490860142001F0DEFE01205B49A3
:10096000C1F88402142001F0D7FE0020534908602A
:10097000CF20FFF739FD0020FFF72AFDC120FFF748
:1009800027FD3020FFF724FDED20FFF72DFD64202B
:10099000FFF71EFD0320FFF71BFD1220FFF718FDD8
:1009A0008120FFF715FDCB20FFF71EFD3920FFF753
:1009B0000FFD2C20FFF70CFD0020FFF709FD342070
:1009C000FFF706FD0220FFF703FDEA20FFF70CFD0D
:1009D0000020FFF7FDFC0020FFF7FAFCE820FFF7FE
:1009E00003FD8520FFF7F4FC1020FFF7F1FC7920D0
:1009F000FFF7EEFCC020FFF7F7FC2320FFF7E8FC31
:100A0000C120FFF7F1FC1120FFF7E2FCC220FFF745
:100A1000EBFC1120FFF7DCFCC520FFF7E5FC3D20D7
:100A2000FFF7D6FC3020FFF7D3FCC720FFF7DCFC34
:100A3000AA20FFF7CDFC3A20FFF7D6FC5520FFF7A0
:100A4000C7FC3620FFF7D0FC0820FFF7C1FCB1201F
:100A5000FFF7CAFC0020FFF7BBFC1120FFF7B8FC32
:100A6000B620FFF7C1FC0A20FFF7B2FCA220FFF777
:100A7000AFFCF220FFF7B8FC0020FFF7A9FCF7203D
:100A8000FFF7B2FC2020FFF7A3FCF120FFF7ACFC3E
:100A90000120FFF79DFC3020FFF79AFC2620FFF78E
:100AA000A3FC0120FFF794FCE020FFF79DFC0FE082
:100AB00002000020880E0020000000209C8241429D
:100AC0000080414220000000848240420080404279
:100AD0000F20FFF77DFC3F20FFF77AFC2F20FFF768
:100AE00077FC0C20FFF774FC1020FFF771FC0A2044
:100AF000FFF76EFC5320FFF76BFCD520FFF768FC77
:100B00004020FFF765FC0A20FFF762FC1320FFF787
:100B10005FFC0320FFF75CFC0820FFF759FC032073
:100B2000FFF756FC0020FFF753FCE120FFF75CFCC9
:100B30000020FFF74DFC0020FFF74AFC1020FFF7D4
:100B400047FC0320FFF744FC0F20FFF741FC052082
:100B5000FFF73EFC2C20FFF73BFCA220FFF738FC00
:100B60003F20FFF735FC0520FFF732FC0E20FFF792
:100B70002FFC0C20FFF72CFC3720FFF729FC3C2032
:100B8000FFF726FC0F20FFF723FC1120FFF72CFCBA
:100B9000502001F0C1FD2920FFF726FC10BD2DE9F2
:100BA000F043074688461446294E08F11F0307F113
:100BB0001F0241463846FFF72DFC06EBC4164FF0E6
:100BC000000918E000250FE030780121A940084015
:100BD00020B120480088FFF7FBFB03E01E48008897
:100BE000FFF7F6FB681CC5B2082DEDDB761C09F19A
:100BF000010000F0FF09B9F1800FE3DBBDE8F083ED
:100C000000B54FF6FF70144908804FF47840114941
:100C1000088012A232211E20FFF744FE14A24621B2
:100C20001E20FFF73FFE15A25A211E20FFF73AFEB5
:100C300016A26E211E20FFF735FE17A282211E206C
:100C4000FFF730FE16A296211E20FFF72BFE00BDF7
:100C5000880C002002000020000000204578706C05
:100C60006F7265722053544D3332463400000000D9
:100C700052454D4F544520544553540041544F4D17
:100C800040414C49454E54454B0000003230313410
:100C90002F352F37000000004B455956414C3A0084
:100CA00053594D424F4C3A0000B589B00121022002
:100CB00000F084FD0121022000F06FFD012007906B
:100CC00002208DF8200003208DF8210000208DF8EF
:100CD000220001208DF8230007A98D4800F076FA44
:100CE00001218B4800F0F0FA02220021884800F030
:100CF000F8FA4FF6FF700490AF20ADF80C0000201A
:100D0000ADF81400ADF80E0003A9824800F0FDFE16
:100D10000820ADF800000220ADF802000120ADF877
:100D200004000020ADF80600ADF8080069467948D7
:100D300001F0C2FA01220921764801F087FB012166
:100D4000744800F06BFF0921724801F093FB1D20ED
:100D50008DF8180001208DF8190003208DF81A0075
:100D600001208DF81B0006A800F03FF909B000BD76
:100D700010B50821674801F080FB00286FD00821DA
:100D8000644801F08BFB002063490870614801F062
:100D900017FB624908800846008861490988884233
:100DA00007DD5E4800885E490988401A5D49088071
:100DB00009E05B4800884FF6FF71081A5749098817
:100DC00008445849088055480088554908805648C5
:100DD0000078401C5449087008460078022811D158
:100DE0005048008841F27071884208DD4D48008803
:100DF000B0F5FA5F03DA01204C49087002E00020E8
:100E00004949087048480078022830DD4748007892
:100E100001282CD1464800684000454908604148F7
:100E20000088B0F5E17F08DD3E480088B0F52F7FEF
:100E300003DA08460068086019E03A480088B0F50F
:100E4000487F0DDD3748008840F21451884207DAA8
:100E50003748006840F001003549086007E037E096
:100E6000002032490870324908602F4908702E4826
:100E70000078222809D12E4800682E4908600220F7
:100E80002A49087001202C49087027480078242836
:100E90001ED12648007802281AD122202249087043
:100EA0002048008841F29411884211DD1D480088D5
:100EB00041F2707188420BDA20480088401C1F49BB
:100EC00008801B4800681B49086001201A49087007
:100ED0000121104801F0D1FAC8B101210D4801F0FB
:100EE000DDFA17480068012811D10B480078401C32
:100EF0000949087008460078022808DB00200C49E0
:100F000008600A490870084908700C49088010BD3B
:100F100000040240000400407914002080140020E6
:100F200082140020841400208814002078140020EB
:100F30007C140020A0140020A4140020861400209B
:100F4000008240421CB50121102000F0DDFB4FF46F
:100F50007F40009001208DF8040000208DF80600ED
:100F600003208DF8050001208DF8070069460B4825
:100F700000F02CF94FF47F41084800F0A3F91CBDA4
:100F800010B54FF47F41054800F09EF910BD10B533
:100F90004FF47F41014800F095F910BD0010024068
:100FA0000948804709480047FEE7FEE7FEE7FEE7FD
:100FB000FEE7FEE7FEE7FEE7FEE7FEE70448054939
:100FC000054A064B704700003D2A000889010008C9
:100FD00020150020201B00202017002020170020B3
:100FE00032490143324A1160704770B50021002335
:100FF0000F22C4781CB32E4C246804F4E064C4F5BA
:10100000E064C4F30721C1F10404E3B20A41447867
:101010009C40E1B28478144021430C07210E254CFA
:1010200005786155047804F01F050124AC4005786B
:101030006D11AD0005F1E025C5F8004109E0047827
:1010400004F01F050124AC401B4D0678761145F8CD
:10105000264070BD194A0A400243154B1B1F1A60F7
:10106000704739B1124A121D12680243104B1B1D02
:101070001A6006E00E4A121D126882430C4B1B1DBB
:101080001A607047042808D14FF0E021096941F047
:1010900004014FF0E022116107E04FF0E0210969FF
:1010A00021F004014FF0E022116170470000FA05C1
:1010B0000CED00E000E400E080E100E080FFFF1FB5
:1010C00010B504469848844208D10121084600F032
:1010D00086FB0021012000F082FB76E093488442E9
:1010E00008D10121022000F07AFB0021022000F04B
:1010F00076FB6AE08E48844208D10121042000F08A
:101100006EFB0021042000F06AFB5EE08948844207
:1011100008D10121082000F062FB0021082000F026
:101120005EFB52E08448844208D10121102000F087
:1011300056FB0021102000F052FB46E07F4884421D
:1011400008D10121202000F04AFB0021202000F0DE
:1011500046FB3AE07A48844208D10121402000F061
:101160003EFB0021402000F03AFB2EE0754884420F
:1011700008D10121802000F032FB0021802000F006
:101180002EFB22E07048844208D10121801500F036
:1011900026FB0021A01500F022FB16E06B488442DC
:1011A00008D10121401500F01AFB0021601500F064
:1011B00016FB0AE06648844207D10121001500F0C1
:1011C0000EFB0021201500F00AFB10BDF0B50A4609
:1011D00000210023002400BF3DE0012505FA01F3B2
:1011E000156805EA03049C4234D105684F000326C4
:1011F000BE40B543056015794E00B54006683543DD
:1012000005601579012D02D01579022D16D185685A
:101210004F000326BE40B543856055794E00B5406A
:10122000866835438560456801268E40B543456034
:10123000456896798E40B6B235434560C5684F0023
:101240000326BE40B543C560D5794E00B540C6689B
:101250003543C560491C1029BFD3F0BD4FF6FF715F
:1012600001600021017141718171C171704708B540
:101270004FF480320092009A0A430092009AC261B1
:10128000C161009AC261C2690092C269009208BD40
:101290000246002013690B400BB1012000E0002042
:1012A00070470146086980B27047024600205369C2
:1012B0000B400BB1012000E0002070470146486957
:1012C00080B2704701837047418370470AB1018340
:1012D00000E0418370474161704742694A40426182
:1012E0007047F0B5002300244D07ED0E02FA05F318
:1012F000CE1000F1200555F826504E07F70E0F26A8
:10130000BE40B543CF1000F1200646F82750CE105E
:1013100000F1200555F8265045EA0304CE1000F1EF
:10132000200545F82640F0BD0000024000040240C0
:1013300000080240000C024000100240001402406D
:1013400000180240001C024000200240002402401D
:1013500000280240F948006840F00100F7490860A1
:101360000020F64908310860F4480068F449084054
:10137000F2490860F348091D0860F348EF498431D9
:101380000860F0481038091D0860EC48006820F437
:101390008020EA4908600020E8490C310860E749EC
:1013A0008C31086070470021E44A921C117011468C
:1013B0000870704710B501460022002300204A1132
:1013C000012A02D1DD4C236808E0022A03D1DB4C5C
:1013D0007034236802E0D94C7434236801F01F0292
:1013E000012494401C400CB1012000E0002010BDFD
:1013F00038B5002000900024002500BF3120FFF701
:10140000D9FF05460098401C00900098B0F5A04F09
:1014100001D0002DF2D03120FFF7CCFF08B101241C
:1014200000E00024204638BD01460020C34A106871
:1014300020F0F80040EAC10010607047C34908601E
:1014400070470021BD4A703211701170012802D01E
:1014500004280AD104E00121B84A7032117005E075
:101460000521B64A7032117000E000BF00BF70471E
:10147000B7490860704770B5049C41EA821501269F
:10148000C6EB530645EA0645054345EA0465AB4EFF
:10149000361D356070BDAD4908667047820142EA6D
:1014A0000172A64B84331A607047A849886670475A
:1014B00010B5830143EA016343EA02739F4C883409
:1014C000236010BDA14908677047A049C8647047F0
:1014D00002460020994B0833186820F0EC6042EA7D
:1014E00001031843954B08331860704702460020EB
:1014F000924B0833186820F0784042EA0103184301
:101500008E4B083318607047014600208B4A083222
:10151000106820F0030008431060704787480830C7
:10152000006800F00C00704701460020834A083232
:10153000106820F0F000084310607047014600205A
:101540007E4A0832106820F4E0500843106070476B
:1015500001460020794A0832106820F4604040EAD1
:10156000C10010607047F0B5002100220024022560
:1015700000260223714F08373F6807F00C0121B1A4
:10158000042905D0082937D105E0724F076036E0FD
:10159000714F076033E0694F3F1D3F68C7F38056C6
:1015A000664F3F1D3F6807F03F036EB16A4FB7FBC0
:1015B000F3F7DFF888C10CF1040CDCF800C0CCF3C1
:1015C000881C07FB0CF40CE0624FB7FBF3F7DFF865
:1015D0006CC10CF1040CDCF800C0CCF3881C07FBD8
:1015E0000CF4564F3F1D3F68C7F301477F1C7D0039
:1015F000B4FBF5F7076002E0564F076000BF00BF7D
:101600004E4F08373F6807F0F0010909534F7A5CE5
:101610000768D7404760494F08373F6807F4E051F3
:10162000890A4E4F7A5C4768D7408760434F083736
:101630003F6807F46041490B484F7A5C4768D740E0
:10164000C760F0BD002100F44072B2F5407F0AD1BE
:101650003A4A0832116821F4F811414A0240114314
:10166000364A08321160354A70321268C0F30B03F3
:101670001A43324B70331A60704735494439086059
:1016800070473349403908607047364908607047F1
:1016900001460020294A8C32106820F01F004A1EA3
:1016A0001043264A8C321060704701460020234ABE
:1016B0008C32106820F4F8504A1E40EA02201F4A7B
:1016C0008C3210607047014600201C4A8C32106832
:1016D00020F4401008431060704701460020174A6C
:1016E0008C32106820F440000843106070470146B7
:1016F0000020124A8C32106820F4403008431060F9
:10170000704719490860704739B10C4A3032126885
:1017100002430A4B30331A6006E0084A303212683E
:101720008243064B30331A607047F9B1034A3432B2
:1017300012680243014B34331A601CE00038024047
:10174000FFFFF6EA1030002400300020000047427E
:10175000800E47420024F40000127A008914002011
:10176000FFFCFF0F5C014742E01147428F4A1268BD
:1017700082438E4B1A60704739B18C4A121D126831
:1017800002438A4B1B1D1A6006E0884A121D12682C
:101790008243864B1B1D1A60704739B1834A0C3255
:1017A00012680243814B0C331A6006E07F4A0C3208
:1017B000126882437D4B0C331A60704739B17B4A03
:1017C000103212680243794B10331A6006E0774AF0
:1017D000103212688243754B10331A60704739B16A
:1017E000724A243A12680243704B243B1A6006E0A6
:1017F0006E4A243A126882436C4B243B1A6070474D
:1018000039B16A4A203A12680243684B203B1A6099
:1018100006E0664A203A12688243644B203B1A6015
:10182000704739B1614A1C3A126802435F4B1C3B56
:101830001A6006E05D4A1C3A126882435B4B1C3B0F
:101840001A60704739B1594A143A12680243574B2B
:10185000143B1A6006E0554A143A12688243534B0F
:10186000143B1A60704739B1504A103A126802436B
:101870004E4B103B1A6006E04C4A103A1268824305
:101880004A4B103B1A60704739B1484A1C32126803
:101890000243464B1C331A6006E0444A1C3212686D
:1018A0008243424B1C331A60704739B13F4A2032A1
:1018B000126802433D4B20331A6006E03B4A203257
:1018C00012688243394B20331A60704739B1374A66
:1018D000243212680243354B24331A6006E0334A3F
:1018E000243212688243314B24331A60704739B175
:1018F0002E4A2C32126802432C4B2C331A6006E01D
:101900002A4A2C3212688243284B2C331A607047C3
:1019100039B1264A303212680243244B30331A6000
:1019200006E0224A303212688243204B30331A607C
:101930007047012808D11D493C31096841F0080170
:101940001A4A3C32116007E018493C31096821F01D
:101950000801164A3C321160704739B1134A273AE0
:1019600012780243114B273B1A7006E00F4A273AC0
:10197000127882430D4B273B1A7070470B4840305A
:10198000006840F0807009494031086070470146A6
:101990000020064A283A12680A400AB1012000E0F5
:1019A00000207047014926390870704734380240DA
:1019B00010B50446FE48844208D101210846FFF7CD
:1019C00052FF00210120FFF74EFF9DE0B4F1804F50
:1019D00008D101210846FFF735FF00210120FFF75C
:1019E00031FF91E0F348844208D101210220FFF742
:1019F00029FF00210220FFF725FF85E0EE48844201
:101A000008D101210420FFF71DFF00210420FFF76A
:101A100019FF79E0E948844208D101210820FFF745
:101A200011FF00210820FFF70DFF6DE0E44884421C
:101A300008D101211020FFF705FF00211020FFF73A
:101A400001FF61E0DF48844208D101212020FFF737
:101A5000F9FE00212020FFF7F5FE55E0DA48844228
:101A600008D101210220FFF7FEFE00210220FFF72E
:101A7000FAFE49E0D548844209D101210804FFF764
:101A8000F2FE00214FF48030FFF7EDFE3CE0D0483D
:101A9000844209D101214804FFF7E5FE00214FF4FB
:101AA0000030FFF7E0FE2FE0CA48844209D101214F
:101AB0008804FFF7D8FE00214FF48020FFF7D3FE03
:101AC00022E0C548844208D101214020FFF7BAFE38
:101AD00000214020FFF7B6FE16E0C048844208D13E
:101AE00001218020FFF7AEFE00218020FFF7AAFE33
:101AF0000AE0BB48844207D101218015FFF7A2FE0E
:101B00000021A015FFF79EFE10BD00220288A84B01
:101B100098420ED0AC4B98420BD0B0F1804F08D019
:101B2000A44B984205D0A44B984202D0A34B9842B4
:101B300004D14FF68F731A404B881A43A04B98423A
:101B400007D0A04B984204D04FF6FF431A400B89B0
:101B50001A4302804B68C3620B880385944B9842FA
:101B600002D0994B984201D18B7A0386012383825C
:101B700070474FF0FF3141600021018001814180B9
:101B8000817270470185828270470A460021018870
:101B90004FF68F73194011430180704741627047BF
:101BA000C16270470146486A70470146088D704718
:101BB00021B1028842F00202028004E002884FF65E
:101BC000FD731A400280704721B1028842F004027E
:101BD000028004E002884FF6FB731A4002807047CF
:101BE00021B1028842F08002028004E002884FF6B0
:101BF0007F731A400280704702884FF6F7731A40CD
:101C0000028002880A430280704702884FF6FF4331
:101C10001A40028002880A430280704721B102887C
:101C200042F00102028004E002884FF6FE731A407F
:101C30000280704770B5002400220023058C4FF607
:101C4000FE7635400584028C8388048B4FF68F75B1
:101C50002C40B51E2C400D882C43751E2A408D89C2
:101C60002A434D882A43524DA84202D0564DA842DD
:101C700013D14FF6F7752A40CD892A434FF6FB75ED
:101C80002A408D882A434FF6FF652B404FF6FF55BB
:101C90002B400D8A2B434D8A2B43838004838D6810
:101CA0004563028470BD70B5002400220023058CBA
:101CB0004FF6EF7635400584028C8388048B48F616
:101CC000FF752C404FF6FF452C400D884FF6FF76F0
:101CD00006EA05252C434FF6DF752A408D8906EA72
:101CE00005152A434D8806EA05152A43304DA842BA
:101CF00002D0354DA8421DD14FF67F752A40CD89BF
:101D00004FF6FF7606EA05152A434FF6BF752A40BF
:101D10008D8806EA05152A434FF6FF352B404FF212
:101D2000FF752B400D8A06EA85052B434D8A06EA8E
:101D300085052B43838004838D688563028470BD91
:101D400070B5002400220023058C4FF6FF66354055
:101D50000584028C8388848B4FF68F752C404FF658
:101D6000FC752C400D882C434FF6FF552A408D8979
:101D70004FF6FF7606EA05252A434D8806EA052533
:101D80002A430B4DA84202D00F4DA84238D14FF242
:101D9000FF752A40CD894FF6FF7606EA05252A43CE
:101DA0004FF6FF352A408D8806EA05252A4319E0BB
:101DB000000001400004004000080040000C00400A
:101DC00000100040001400400004014000400140A9
:101DD000004401400048014000180040001C004041
:101DE000002000404EF6FF752B404DF6FF752B404E
:101DF0000D8A06EA05152B434D8A06EA05152B4385
:101E0000838084838D68C563028470BD70B50022B1
:101E100000230024058C4EF6FF7635400584038CA4
:101E20008488828B48F6FF752A404FF6FF452A408A
:101E30000D884FF6FF7606EA05252A434DF6FF7515
:101E40002B408D8906EA05352B434D8806EA05357A
:101E50002B43FE4DA84202D0FD4DA84208D14BF6BF
:101E6000FF752C400D8A4FF6FF7606EA85152C4348
:101E7000848082838D680564038470BD00210180A5
:101E80004180818081608181C1810182418270476E
:101E900070B50346002000241846183001258D40F7
:101EA000ACB21D8CA5431D8409B108290AD100EBF1
:101EB000610005684FF68F7635400560056815436B
:101EC00005600FE00D1FC5F34E052844056848F670
:101ED000FF763540056005684FF6FF7606EA022674
:101EE0003543056070BD4163704781637047C163CE
:101EF0007047016470470A460021018B4FF68F73CB
:101F000019401143018370470A460021018B48F6AE
:101F1000FF7319404FF6FF7303EA0223194301834D
:101F200070470A460021818B4FF68F731940114389
:101F3000818370470A460021818B48F6FF73194060
:101F40004FF6FF7303EA02231943818370470A4661
:101F50000021018B4FF6F77319401143018370473D
:101F60000A460021018B4FF2FF7319404FF6FF73B1
:101F700003EA02231943018370470A460021818B3B
:101F80004FF6F77319401143818370470A460021C9
:101F9000818B4FF2FF7319404FF6FF7303EA022360
:101FA0001943818370470A460021018B4FF6FB736A
:101FB00019401143018370470A460021018B4FF6F7
:101FC000FF3319404FF6FF7303EA022319430183DD
:101FD00070470A460021818B4FF6FB73194011436D
:101FE000818370470A460021818B4FF6FF331940E9
:101FF0004FF6FF7303EA02231943818370470A46B1
:102000000021018B4FF67F73194011430183704704
:102010000A460021018BC1F30E014FF6FF7303EA5C
:1020200002231943018370470A460021818B4FF632
:102030007F7319401143818370470A460021818BC9
:10204000C1F30E014FF6FF7303EA022319438183A4
:1020500070470A460021018C4FF6FD731940114369
:10206000018470470A460021018C4FF6F77319402E
:102070001143018470470A460021018C4FF6DF733B
:1020800019404FF6FF7303EA0213194301847047A6
:102090000A460021018C4FF67F7319404FF6FF73FB
:1020A00003EA02131943018470470A460021018C98
:1020B0004FF6FF5319404FF6FF7303EA022319430B
:1020C000018470470A460021018C4FF2FF731940CA
:1020D0004FF6FF7303EA02231943018470470A464F
:1020E0000021018C4DF6FF7319404FF6FF7303EA90
:1020F000023319430184704730B5002301248C401A
:10210000A3B2048C9C430484048C02FA01F5ADB2A2
:102110002C43048430BD30B5002304248C40A3B28A
:10212000048C9C430484048C02FA01F5ADB22C4368
:10213000048430BD828B4FF2FF331A408283828B3E
:102140004FF6FF7303EA01231A4382837047F0B509
:102150000C461546002100220026078C4EF6FF7C17
:1021600007EA0C070784818B028C4FF6FF7707EA9A
:10217000043640F6FF4739404FF6FF7707EA052758
:1021800039434FF6FF7707EA0337394345F6FF77C0
:102190003A4046F480573A4381830284F0BD828BF3
:1021A0004FF6F3731A408283828B0A43828370470F
:1021B000F0B50C461546002100220026078C4FF68C
:1021C000FF6C07EA0C070784818B028C4FF6FF77C0
:1021D00007EA04264FF60C7739404FF6FF7707EAF7
:1021E00003172F4339434FF2FF573A4046F48077A5
:1021F0003A4381830284F0BD028B4FF2FF331A40D1
:102200000283028B4FF6FF7303EA01231A43028312
:102210007047F0B50C461546002100220026078CB9
:102220004FF6EF7C07EA0C070784018B028C4FF610
:10223000FF7707EA041640F6FF4739404FF6FF776D
:1022400007EA033739434FF6FF7703E00000014008
:102250000004014007EA052739434FF65F773A400B
:1022600046F010073A4301830284F0BD028B4FF61B
:10227000F3731A400283028B0A4302837047F0B55E
:102280000C46154600210022068C4FF6FE773E4094
:102290000684018B028C4FF60C7631407E1C06EAD8
:1022A00003162E4331434FF6F576324044F00106D3
:1022B000324301830284F0BD70B505460C46208888
:1022C00050B92389A28861882846FFF7D8FFE188A2
:1022D0002846FFF7CBFF25E0208804280AD1238970
:1022E000A28861882846FFF794FFE1882846FFF717
:1022F00083FF17E0208808280AD12389A2886188F3
:102300002846FFF755FFE1882846FFF748FF09E018
:102310002389A28861882846FFF719FFE1882846AB
:10232000FFF708FF70BD00210180418001218180FD
:102330000021C180018170472DE9F04105460C461E
:1023400000260127608808B9022600E00026A08840
:10235000012801D1022700E001272088A0B92389A4
:10236000A28861882846FFF78AFFE1882846FFF7A0
:102370007DFF23893A4631462846FFF74AFFE18828
:102380002846FFF739FF13E02389A2886188284691
:10239000FFF73FFFE1882846FFF72EFF23893A46E3
:1023A00031462846FFF76BFFE1882846FFF75EFFBE
:1023B000BDE8F0810146486B70470146886B704765
:1023C0000146C86B70470146086C70470A884B8805
:1023D0001A438B881A43CB881A430B891A434B89BB
:1023E0001A438B891A43A0F84420704700210180CA
:1023F00041808180C180018141818181704731B1FB
:10240000B0F8442042F40042A0F8442005E0B0F8BF
:102410004420C2F30E02A0F84420704721B1828804
:1024200042F00402828004E082884FF6FB731A4077
:102430008280704721B1828842F00102828004E0EC
:1024400082884FF6FE731A40828070471AB18389E2
:102450000B43838102E083898B43838170478182B0
:10246000704702460020138A0B400BB1012000E0A8
:1024700000207047CA430282704730B502460020F0
:1024800000230024158A05EA0103958905EA010461
:1024900013B10CB1012000E0002030BDCA4302821C
:1024A000704741EA0203A0F8483070471AB18389A7
:1024B0000B43838102E083898B438381704721B181
:1024C000828842F00802828004E082884FF6F77327
:1024D0001A408280704701894FF6F87211400181DD
:1024E00070470A46002101894FF68F731940114346
:1024F0000181704730B504460D4629462046FFF756
:10250000F0FF208940F00700208130BD2DE9F04127
:1025100004460D4616461F46602D06D13B46012255
:1025200031462046FFF775FE05E03B460122314665
:102530002046FFF7A4FE29462046FFF7D2FF208958
:1025400040F007002081BDE8F08130B50C46002145
:102550000189C9B24FF6FF7505EA032515432543E6
:102560002943018130BD2DE9F04105460E4617464D
:102570009846002443463A4631462846FFF7E5FF91
:102580002C894FF6F870044044F007044FF68F7022
:10259000044044F070042C81BDE8F081F0B504469D
:1025A0000D4616461F463B46324629462046FFF753
:1025B000CCFF208940F480402081F0BD82884FF616
:1025C0008F731A40828082880A4382807047028912
:1025D0004FF6F8731A40028102890A43028170475C
:1025E00002894FF67F731A40028102890A430281F1
:1025F0007047F0B50C4615461E4600210022002308
:102600000189028B038C4FF6F877394021434FF64E
:10261000FC473A4040F201173A434FF6DD773B4022
:102620004FF6FF7707EA06172F433B4301810283EA
:102630000384F0BD21B1828842F08002828004E0F0
:1026400082884FF67F731A4082807047A0F850103E
:102650007047000010B504466FF00400FEF712FD4D
:10266000E11704EB5171C1F3C701394A11701046EB
:10267000007800EB4001C1EBC0104FF6FF7101EA9A
:10268000C0003449088010BD0146314A12784A43DF
:102690004FF0E0235A6100229A611A46126942F013
:1026A00001021A6100BF4FF0E022106900F0010240
:1026B0001AB100F48032002AF5D04FF0E0221269FE
:1026C00022F001024FF0E0231A6100229A61704764
:1026D0000146204A12884A434FF0E0235A61002203
:1026E0009A611A46126942F001021A6100BF4FF066
:1026F000E022106900F001021AB100F48032002AD1
:10270000F5D04FF0E022126922F001024FF0E023F1
:102710001A6100229A61704770B504464FF4077041
:1027200094FBF0F0C6B24FF4077094FBF0F100FB9D
:10273000114085B205E04FF40770FFF7C9FF701E26
:10274000C6B2002EF7D115B12846FFF7C1FF70BD04
:102750009A1400209C14002008B5A820FFF77AFFE7
:10276000FDF782FDFEF7C1F84FF4A060FEF738FCDC
:10277000FEF7E8FBFEF744FAFEF796FAA5E05348A9
:1027800000780028FAD0002050490870504800888E
:10279000000A504908700323084602788221562017
:1027A000FEF721F84B48007868284ED018DC38280E
:1027B00067D00CDC182858D004DC022831D010284F
:1027C00073D15AE0222828D030286ED149E042281F
:1027D0005FD04A2861D0522863D05A2865D154E08E
:1027E000A8282AD008DC7A2843D0902829D0982815
:1027F0002FD0A22859D108E0B0282ED0C22814D05A
:10280000E02816D0E22850D103E033A03449086014
:102810004BE034A03249086047E034A030490860FA
:1028200043E034A02E4908603FE033A02C49086003
:102830003BE033A02A49086037E033A0284908600C
:1028400033E033A0264908602FE033A02449086014
:102850002BE032A02249086027E031A0204908601F
:1028600023E030A01E4908601FE02FA01C4908602B
:102870001BE02EA01A49086017E02DA01849086037
:1028800013E02CA0164908600FE02BA01449086043
:102890000BE02AA01249086007E029A0104908604F
:1028A00003E028A00E49086000BF00BF4FF6FF708C
:1028B000BA23B422962100905620FDF7AEFE0848B8
:1028C000962102685620FDF7EDFF58E7A41400207A
:1028D000A0140020A514002020504F57455220007E
:1028E000A8140020204D454E55200000205445538B
:1028F00054200000202B00002052455455524E0019
:10290000204C4546540000002053544F5000000016
:10291000205249474854000020300000202D00007C
:10292000204300002031000020320000203300004E
:102930002034000020350000203600002037000041
:102940002038000020390000704700BFFEE700BFBC
:10295000FEE700BFFEE700BFFEE770477047704725
:102960000CB50020019000907648006840F480305B
:102970007449086000BF7348006800F4003000909C
:102980000198401C0190009818B90198B0F5A04F2B
:10299000F1D16C48006800F4003010B101200090C3
:1029A00001E0002000900098012846D165484030A1
:1029B000006840F080506349403108606248006818
:1029C00040F44040604908605E48083000685D4956
:1029D000083108600846006840F400400860084676
:1029E000006840F4A05008605848091F0860081F9C
:1029F000006840F08070091F086000BF51480068FF
:102A000000F000700028F9D040F2057050490860CD
:102A10004C480830006820F003004A49083108603B
:102A20000846006840F00200086000BF45480830D2
:102A3000006800F00C000828F8D10CBD10B545481E
:102A4000006840F47000434908603E48006840F068
:102A500001003C49086000203A49083108603948C3
:102A600000683D490840374908603C48091D086036
:102A7000081F006820F48020091F086000203149E9
:102A80000C310860FFF76CFF4FF00060314980396E
:102A9000086010BD70B5002000220223002402212E
:102AA000284D08352D6805F00C0020B1042806D00B
:102AB000082834D107E02A4D2A4E356033E02A4DEC
:102AC000284E35602FE01F4D2D1D2D68C5F3805415
:102AD0001C4D2D1D2D6805F03F0154B1224DB5FB55
:102AE000F1F5184E361D3668C6F3881605FB06F25A
:102AF00009E01B4DB5FBF1F5124E361D3668C6F3E5
:102B0000881605FB06F20F4D2D1D2D68C5F30145F6
:102B10006D1C6B00B2FBF3F5124E356003E0104DF7
:102B2000104E356000BF00BF064D08352D68C5F357
:102B300003150E4E705D0B4D2D68C540094E356076
:102B400070BD00000038024000700040085440078B
:102B5000003C024088ED00E0FFFFF6FE103000244C
:102B60000024F400AC14002000127A00B0140020FD
:102B7000704770477047754600F02CF8AE46050068
:102B80006946534620F00700854618B020B5FEF789
:102B900015FABDE820404FF000064FF000074FF057
:102BA00000084FF0000B21F00701AC46ACE8C0096B
:102BB000ACE8C009ACE8C009ACE8C0098D46704774
:102BC00010B50446AFF300802046BDE81040FDF785
:102BD00044BB000000487047C01400200149182081
:102BE000ABBEFEE72600020070474FF04070E1EEFA
:102BF000100A7047142C000800000020C0140000C8
:102C0000C401000890380008C014002060060000CD
:102C100020020008410E19813C622BFF01180EBEF4
:102C2000F77DEFBAD6B6B5F39CB294B30408091A8F
:102C300034A5F7BDFBDE7DEF3409184C180EFBDE22
:102C4000F39CCB5AC73904218210420208112A4151
:102C50000883184529C7390C6375AD3CE7BEF74EAC
:102C600048113CE7B2940842C31882100421452958
:102C70008631022B45295C080B264108C3180842FF
:102C8000F39C3CE74E3808FBDE0C63C318C38E8B05
:102C90000842022DC739C73958080B2404214108BE
:102CA0008210CB5ABAD64E6DCB5A82104C7C094A50
:102CB00049024952295425452983180D1EC8413817
:102CC000C64E6D7DEF8E734E180E094A8A523084BF
:102CD000CF7B8A52494A4A042FCB5ACF7B0C63568A
:102CE00029521AC3520B1E494AA42FF39CC318043D
:102CF000214E2992280972947DEF7DEFB2944E689F
:102D00000B8A5275ADBEF7BAD64D6BA4080918C32D
:102D1000184108CF7B7CE74E6FBAD6084282104E2E
:102D20002F8E73FBDEFFFF4448118E730842308400
:102D30003CE77DEFFFFFB6B5494A5008091604216C
:102D400041084529B6B54E2DBEF7718C22494E98E3
:102D50001E4A52B294BEF7BEF7B294CF7BCF7B49E6
:102D60004AB6B5F39C0C6338C6BAD60C6387A22B5F
:102D70003084660912014F3CE7CB5A41089E181C6B
:102D80004A528A52F39CFFFF7DEFC739C3180C6388
:102D9000CB5AB6B5B294CB5A75ADFAF2695029A2A6
:102DA0000D148A5279CE50480938C686310421C89C
:102DB000419EAD494AB18CA0780E74A57DEF7CE7A9
:102DC000BEF779CE0C63C7500809128210452975E9
:102DD000ADBEF7504F34A582108631EE1A8A502DC1
:102DE0004D6BBAD6181C79CE0D424BCF7BD84F75A0
:102DF000AD084286315029F20D12C318B294F2196F
:102E00008A6A8CEE2950281B8A524A4AD07B7AC69D
:102E10007BBE906BC9398831C939B384BBC6F8B55C
:102E2000CC5A4E6950080910C420410830843CE750
:102E3000506F3CE78A4AC310501901482042093AB2
:102E4000084A096B497BC67A05834683C57AC672F0
:102E5000097B485A8731882188298631504F0421BF
:102E600041084A4AC8C9012809F7C582500541C727
:102E700029501A4A042822097B889BC6B321D4A072
:102E8000DCE1E461ED61ED21EDA0E420DC80CB43E9
:102E9000ABC482065A4721464EE80A29041982101B
:102EA0008218F39CF2157DEF4D931815A082B8C7D8
:102EB000310932494A867A43C36BEDF4F6EBFD20C3
:102EC000021C60FDA0021A6002180F20FDE0FCA0A9
:102ED000FC60F4C1DB839AC549501619C4208238BE
:102EE000EC50CB6AA215FBEE04A112C03813F0C35C
:102EF000A0C8414942059B20FCA4FC69FDE8FD6394
:102F000050494C294E39501EFC20FC41D35010082A
:102F100019C43882684188DE70495A79CE5014F657
:102F200082C02816D086C146F141C84579895288A9
:102F300062866AC67AC4BBE1FC4C69A01015E0FC4D
:102F400060E403938472446AC5414529C35841A88B
:102F5000409812B0CC600C6B50177DEFCE83828806
:102F60001830F8C4D80CF38AFA82E882B04569C7F1
:102F7000510842083A865A839BA2BC22CD21CDA19A
:102F8000C422B4C47A063A862945290531C4504181
:102F900090D012A81AA004AC304A4AF0100B7DEF72
:102FA0008E73C318053982A8381DF8C3F84DFB4D40
:102FB000FBC7F9C3F082D8C3B0048145614651868E
:102FC00049864946414502100905490461829041FC
:102FD000B012D01AC84A12A8480CB84158821082C0
:102FE00010B294BEF74E101BBEF7CF7B82100421A7
:102FF00086298641049940E841F886F9CBFA49FAD6
:1030000082F812F812F05808E841D841D041C002C5
:103010001AC8481AE0021AD80812B82EA8418882A5
:10302000484E214B4529F21815BEF7F39C8210C378
:103030001845298631C731307CF3DC86E1461BF820
:10304000410219500910025AE850280AC841A08AC2
:103050009A0C63041150234108280D4D6B7DEFFF3E
:10306000FFFBDE084242104E180D8631494A38BE39
:10307000FFFF38D686A9CC2AE056D9022AF0B0192B
:103080001A4810D0C3988A8AB2A4BAC6F7B50842C3
:10309000410850480D4529F7BDFFFF718C410804D8
:1030A0002150100B0C633CE7FFFF79D646B938106E
:1030B000E042C882A882B041D882E882F041E802AA
:1030C00029082818D804C108924D8B34A5FBC6FBEB
:1030D000D6BACE3CE73084C31841085020094108D5
:1030E000CF7B7DEF494A29501A465048393084FF3A
:1030F000FFFFF7F7DD09DA83F801F042C082984953
:103100009AF3B4F3CC71BC8EBB8EBB30BC71BCF3F4
:10311000BCB6BDFBCEBEE77DE73BDFBAD679CEFBC2
:10312000DE75AD863150214F494AFBDE0421A010E7
:103130001145298739B294FFFFBEF734DD0CEB0946
:10314000FA14F001D81DD88BD27DB2C9012809BE6E
:10315000FF7DEFFBDEFBDE502FBAD678C6C7399C69
:103160004125C73979CE18088210C318042105F209
:103170002BB39CA0180875DDC7E9C7F901A211FEA1
:10318000E849E2FBEE50AAF75085B9CE08422DC7B8
:103190003938C6502D82100421A439F01EFF38DEC4
:1031A000C4D09E12F812F80E14F008D2FBE6502993
:1031B0004E29504D79CEC7399E212B863150212F73
:1031C000C318CB5A8631061C7DEFFFCEE80DCFBB6E
:1031D000C3B041D041D082B84DB3F07EBEF7BEF748
:1031E0003D50680BFAD6F7BD0421863104215049C1
:1031F00048380B75ADCF7B41088631F7BD34080CDC
:1032000012EF74B5309C309C72A4BBD69E6B3CE729
:1032100050200D3CE7718C81080C63CF7B82102815
:103220000B8A5238C675AD718CB6B52223C739EBFF
:10323000CF734009104E3E7DEF3BDFFA4E1CFBDEA4
:10324000B9EE180EC420718CBAD6718CCB5AB294D8
:10325000BA802922292C08091EB6B54629051975F8
:10326000A550699E1808BAD6FCDE4E63429E280B14
:10327000F7BDBEF7FFFFFBDEFBDE0889010808157E
:10328000F49C04210521B652ABBEF74E380EFBDE8E
:10329000BBD6D17383188639349DBD90D92ED80FF3
:1032A000FF35D6EBCC43B340510519F58CBE22490E
:1032B0004C594E1950E8113CDF3ABE4F63824940E9
:1032C000A323B4CC833ABE4E2817BFF7B5BD829274
:1032D00020F4A0FC60E4408284418F6B77AD3DE731
:1032E0001A3AFE4C894E1013FBDE3DE7BBCE369DED
:1032F0000B6B416A60C420FE60F5CE8BC76A38C68E
:10330000EA180C7DEF4B7B80B2A0FCA0FCE0021819
:1033100010C0CBC18A45624D6BB394F7BD3DDFFF52
:103320002A4950C81F7DE73DDFBAC675A58D7B844D
:103330007A40B3E0ECE0FDE0FD60F520E5A0D40AC2
:103340006BFBDE503ECC9340EB6050182A20FD60B2
:10335000FD20F5A0D4C0BB429B458B6B9CAE9C71FD
:103360008CB394339D34A5F2A4F0B4CA9B049B4063
:10337000BB20E420FDA0022952D808E0FD20C4882B
:103380005A38F4480978D646AB40DB20F4541A602A
:103390002C39561012DCC0B3C05186290D638F7BC7
:1033A0000D5BC74101824CC3C0E32419262AF59E58
:1033B000C809809B8662308479CE502832FFFF385E
:1033C000C62D9C059343A382B3C2BBC2BB22B48269
:1033D000A34293C37A85620B637184B6B579CE79C3
:1033E000C6B5AD70944A8B06830493049B4302E8F0
:1033F0000E93048308738D73B39479CE7DEF5038A8
:103400000FFFFF3CDF38BE75B533A533A5F39C0233
:10341000480C94F39C35A5F8BDFBDEBEF722681975
:103420007EEFBBD6F8BDB6AD75AD34A5339D349DEA
:1034300035A5B7AD79C63CE72093FFFF1BC001045B
:103440005A03041B011C044E3EFEFFFF7F181201AD
:10345000100A30C00106F0FFFF1F7018110C1E701B
:103460000C1C0E70383C0E70780E0E707004180B29
:1034700030770E70FFFF0E70C081041A01041BE14B
:103480000E2C1A0F0C2904591429041A39101AF198
:1034900004148107301A8069D1170318F8FF0778E0
:1034A0001008800FF080C101E0127F12E0123E157B
:1034B000E0183C0C14F8FF1F2C381C1E041EC039E9
:1034C0001C1EFE042EE0F9FF1FE0086904E91079D4
:1034D0000415DC0FF81B140F3C0F14021F7C26F898
:1034E0000CF0FF3F1950011039E839FC0912041A99
:1034F0001C048E3EFEFFFF672819042AE0041A0709
:10350000041A0604220E23F00C1B701C0422381A25
:103510003804233C70231CE01A0E29180807C00742
:10352000C003803F0E1B7E781602101E1E70C00165
:10353000C0E1221008E3E10380C7E30123CFE323C6
:10354000CF73138F3112301F3818F0FFFF3F521A1C
:103550007C04130E3C1460063C1EF003C0FFFF8D7C
:103560001AF80419741A80881C80031C0829A81AE8
:103570007F0C1A60042914C9042AFCB429C4011957
:103580004A080121331818E5486C2412280824241D
:10359000247F12121204392F280C1C2A2A0A0C1814
:1035A00028282A2A1C3611500C22251515152A58B0
:1035B000545454221A0C2930080A76252911916E88
:1035C0001C06060482A14D40201010712510102009
:1035D000402B02040A29015D08080402913D6B1C7E
:1035E0001C6B5C79A14A7FA3D1A95B0213FE430641
:1035F000063D80404020743C040402604C18244284
:10360000012A24F0195F4A0E905408083E1A3C1B08
:1036100019326D0804427E105009201820404042A3
:10362000221C500C203028242422227E2020788F37
:103630007E0202021A26202B38241089606C7E221A
:1036400022F379603A2485523C390B4E645840404D
:1036500024402913393A490649A449063308042A63
:10366000409C870204081020405A7F0451491B39AE
:103670002569701A460F6A10501D1C225A55016A9E
:103680002DB0500C0808181414243C224242E71EA6
:103690001F2222221E0E5442221F2D7C4242010173
:1036A00069302A1F1C29015920B80C3F4212121EF2
:1036B00012120242423F104C020207801B22223E9D
:1036C0005C712122402AE73C2A7E0549706B3E0846
:1036D000014A3E707A100133110F500C7722120A02
:1036E0000E0A12122222771A075A39014A42F31B94
:1036F0007736012A2A01526B580CE346464A4A5251
:103700005252626247F04A410159802A3F7B2A3E69
:103710004149A059206E4D53321C60202A3E6F4B08
:1037200042C79018084242020418204016516B7F8D
:1037300049B099D039016A3C10500922242414144C
:103740001808081B6B49015F555536222222204874
:103750000A2424181818242442E7C09D2222141495
:1037600050300C7E2120101008040442423F6A7839
:103770006D290132781D020204040B10081010207C
:10378000202040409B1E1001221E031C384412FFC3
:103790004A0695F150083C4278444242FC1F03021D
:1037A00002021A26CF93261A1B3844155344382D8B
:1037B000604040402E9C4264D840567E0202423C0B
:1037C0003EF08808087EAF923E38087C22221C0218
:1037D0003C422229601B3A46405342E7230C0C9A94
:1037E0000E301B30307019DD19011A22D1393050DA
:1037F0000872120A16122277492CC9602B7F920197
:1038000092B79A3B6049A0290149A0412A1BE07563
:10381000221E020739D075447840E01C774C040121
:103820008A1FC06E42023C404270197A398019A941
:10383000712A635F9362DC9008E74224241408082D
:103840009008EB494955552222C8087624181818C3
:10385000246E306C1808089030087E221008084446
:103860007E2BC020013A10061320C0DA1001113A55
:10387000068A192E2901120604220C32C22D0102D9
:10388000030404051406070809AC7A030A2B292748
:040000050800018965
:00000001FF
