:020000040800F2
:1000000090060020D1010008A12300084F1C000821
:100010009F2300083B030008D934000800000000BB
:10002000000000000000000000000000FD260008A5
:100030003D03000800000000C3230008FF2600085D
:10004000EB010008EB010008EB010008EB010008E0
:10005000EB010008EB010008EB010008EB010008D0
:10006000EB010008EB010008EB010008EB010008C0
:10007000EB010008EB010008EB010008EB010008B0
:10008000EB010008EB010008EB010008EB010008A0
:10009000EB010008EB010008EB010008EB01000890
:1000A000EB010008EB010008EB010008EB01000880
:1000B000EB010008B9270008EB010008EB0100087C
:1000C000EB010008EB010008EB010008EB01000860
:1000D000EB01000899340008B9340008EB0100086E
:1000E000EB010008EB010008EB010008EB01000840
:1000F000EB010008EB010008EB0100080000000024
:10010000EB010008EB010008EB010008EB0100081F
:10011000EB010008EB010008EB010008EB0100080F
:10012000EB010008EB010008EB010008EB010008FF
:10013000EB010008EB010008EB010008EB010008EF
:10014000EB010008EB010008EB010008EB010008DF
:10015000EB010008EB010008EB010008EB010008CF
:10016000EB010008EB010008EB010008EB010008BF
:10017000EB010008EB010008000000000000000097
:10018000EB010008EB010008EB010008EB0100089F
:10019000EB010008EB010008000000000000000077
:1001A0000000000000000000EB010008EB01000867
:1001B000EB010008EB010008EB010008DFF80CD0B0
:1001C00000F07EF80048004719380008900600202B
:1001D0000648804706480047FEE7FEE7FEE7FEE7E1
:1001E000FEE7FEE7FEE7FEE7FEE7FEE7752700080D
:1001F000BD0100082DE9F05F0546002092469B46B0
:1002000088460646814640241BE02846414647462C
:10021000224600F044F853465A46C01A914110D382
:1002200011461846224600F02BF82D1A67EB0108FC
:100230004F4622460120002100F022F817EB00096A
:100240004E41201EA4F10104DFDC484631462A4617
:10025000434600F000B830BCBDE8C09FD2B201E018
:1002600000F8012B491EFBD270470022F6E710B5BB
:1002700013460A4604461946FFF7F0FF204610BD14
:10028000202A04DB203A00FA02F100207047914056
:10029000C2F1200320FA03F3194390407047202A4B
:1002A00004DB203A21FA02F00021704721FA02F320
:1002B000D040C2F120029140084319467047000027
:1002C000064C074D06E0E06840F0010394E80700A3
:1002D00098471034AC42F6D3FFF774FFB4380008E7
:1002E000D438000870B58C1810F8015B15F00703BE
:1002F00001D110F8013B2A1106D110F8012B03E0BF
:1003000010F8016B01F8016B5B1EF9D12B0705D4C6
:100310000023521E0DD401F8013BFAE710F8013B0F
:10032000CB1A921C03E013F8015B01F8015B521E2B
:10033000F9D5A142D8D3002070BDFEE770477047C1
:1003400010B590F825100024022903D00421C163C0
:1003500001242BE001680A6822F00E020A6001689D
:100360000A6822F001020A60816C0A6822F4807235
:100370000A6090F84410036C01F01C01012202FA9B
:1003800001F15960D0E913134B60416D31B10B6835
:1003900023F480730B60D0E916134B6080F825209E
:1003A000002180F82410816B01B18847204610BDE0
:1003B00070B5044600F0EEF80546601C00D0641CE1
:1003C00000F0E8F8401BA042FAD370BD2DE9F84FC9
:1003D000DFF888B100234FF0010C4FF0030A4FF013
:1003E0000F090BF1040EB1E00CFA03F632406FD0A6
:1003F0004C68022C01D0122C11D1DC0800EB8407D0
:100400003C6A5D07ED0E09FA05F824EA0804D1F804
:10041000108008FA05F848EA0408C7F82080076841
:100420005D0091F804800AFA05F408F00308A74378
:1004300008FA05F848EA0708C0F800804F68012F5D
:1004400005D0022F03D0112F01D0122F10D1D0F8D8
:100450000880CF6828EA0408AF4047EA08078760A9
:100460004768B7430E79C6F300169E403E43466088
:10047000C668A6438C68AC403443C4604C68E40052
:1004800063D5374C256E45F001052566246E23F0B3
:10049000030504F001040094324C2F19BD689C0739
:1004A000260F09FA06F4A543B0F1904F04D02E4C64
:1004B000A04203D1012421E000241FE02B4CA042E4
:1004C00001D102241AE02A4CA04202D1032415E0F3
:1004D0003BE0284CA04201D104240FE0264CA0426E
:1004E00001D105240AE0254CA04201D1062405E0F3
:1004F000234CA04201D1072400E00824B4402C433F
:10050000BC60DBF800405D464E689443F60300D5BE
:1005100014432C60DEF8004075464E689443B603E1
:1005200000D514432C600D4D08352C684E6894435B
:10053000F60200D514432C60084D0C352C684E682B
:100540009443B60200D514432C605B1C0A6832FA4F
:1005500003F47FF449AF00F015B800000004014037
:10056000001002400000014000040048000800485C
:10057000000C004800100048001400480018004813
:10058000001C004818BCBDE8E08F0AB181617047CB
:100590008162704701480068704700002401002014
:1005A00002480168491C01607047000024010020D6
:1005B00010B50024032000F065F8002000F008F8D2
:1005C00008B1012401E000F01BF8204610BD000036
:1005D00070B5054609484FF47A7100240068B0FBF5
:1005E000F1F000F075FE08B1012404E00022294674
:1005F000501E00F027F8204670BD000028010020A2
:10060000094808B5016E41F001010166016E01F073
:1006100001010091816D41F080518165806D00F094
:100620008050009008BD00000010024000F01F0242
:10063000012191404009800000F1E020C0F8001144
:1006400070470000F0B40E4B1B680C46C3F3022346
:10065000C3F10705042D00D90425191D072901D26E
:10066000002300E0DB1E012606FA05F1491E2140A9
:1006700099409E40761E16403143F0BC01F091BE79
:100680000CED00E0064900F0070208684FF6FF0392
:10069000184040EA0220034A1043086070470000F7
:1006A0000CED00E00000FA052B492C4B0A683221C2
:1006B0004A432B4940B1B0F5007F086829D020F4A7
:1006C000C06040F480602CE00868C0F3412002283C
:1006D00004D051F8800F20F4807022E0D1F880001F
:1006E00020F48070C1F88000086820F4C06040F4F5
:1006F00000700860B2FBF3F0401C00E0401E4A6945
:10070000520501D50028F9D1486940050AD50320D2
:100710007047C0F34120022806D051F8800F40F402
:100720008070086000207047D1F8800040F480702D
:10073000C1F88000086820F4C06040F400700860D0
:10074000B2FBF3F0401C00E0401E4A695205DBD5C5
:100750000028F9D1D8E700002801002040420F000E
:100760000070004008480168C1F34121022906D009
:10077000D0F88000C00505D54FF4007070474FF4E5
:100780008060704700207047007000402DE9F84FEE
:100790000446002700883E46010504F12008FE4D6E
:1007A0001ED5E06E40280AD003DC68B1202804D1B1
:1007B0000FE0602821D080281FD001270FE0E868D3
:1007C00040F48030E86018E00021201D01F0FAFDBF
:1007D00003E00021404601F089FE07000DD03E46AF
:1007E0002088C0042BD5206FB0F5007F16D00DDC1B
:1007F000C8B1B0F5807F0FD11AE0D5F89C00E16E4A
:1008000020F0E0000843C5F89C00E9E7B0F5407F20
:1008100013D0B0F5806F10D001270FE0E86840F4E6
:100820008030E86009E00021201D01F0CBFD03E0ED
:100830000021404601F05AFE0746F7B13E462068C7
:1008400080033AD5A86D4FF00008C00009D4A86D08
:1008500040F08050A865A86D4FF0010800F080506E
:100860000090DFF838A3DAF8001041F48071CAF87C
:100870000010FFF78FFE814610E0D5F89C00216F35
:1008800020F4E0600843C5F89C00D8E7FFF782FE3B
:10089000A0EB0900022801D9032705E0DAF80000DF
:1008A000C005F3D5002F7CD04FEA0706B8F1000F42
:1008B00003D0A86D20F08050A8652078C00707D02D
:1008C000D5F88800E16B20F003000843C5F88800E4
:1008D0002078800707D5D5F88800216C20F00C001F
:1008E0000843C5F888002078400707D5D5F8880068
:1008F000616C20F030000843C5F8880020780007BC
:1009000007D5D5F88800A16C20F0C0000843C5F8D1
:1009100088002078C00607D5D5F88800E16C20F45F
:1009200040700843C5F888002078800607D5D5F8C0
:100930008800216D20F440600843C5F888002088B5
:10094000800507D5D5F88800616E20F44020084363
:10095000C5F888002088400507D5D5F88800A16E25
:1009600020F440100843C5F888002078400607D5D9
:10097000D5F88800616D20F440500843C5F8880020
:100980002078000607D5D5F88800A16D20F44040F6
:100990000843C5F888002088C00509D5D5F8880027
:1009A00000E027E0E16D20F440300843C5F88800FE
:1009B0002068C00207D5D5F89C00216E20F0030006
:1009C0000843C5F89C0020884FF0006780044FF072
:1009D000806850D5D5F88800616F20F040600843EA
:1009E000C5F88800606FB8423DD1E86840F48010D7
:1009F000E86040E0D5F8900010F4407015D0D4F8CD
:100A00009010814211D0D5F89000D5F8901020F4C4
:100A1000407041F48031C5F89010D5F8901021F461
:100A20008031C5F89010C5F89000C00711D0FFF7CD
:100A3000B1FD074641F2883907E000BFFFF7AAFD84
:100A4000C11B494501D9032630E7D5F8900080073E
:100A5000F4D5D5F89000D4F8901020F440700843F5
:100A6000C5F8900022E7404505D10121201D01F085
:100A7000A9FC00B10646206800032DD5A06F4FF4F5
:100A800080418842D5F89C0004D140F48040C5F8EC
:100A90009C000BE020F48040C5F89C00D5F888004D
:100AA000A26F20F040601043C5F88800A06FB842E4
:100AB00003D1E86840F4801004E0884204D1E8687B
:100AC00040F48030E86007E0404505D10121201D59
:100AD00001F078FC00B106462068400317D5D5F830
:100AE0008800E16F20F040600843C5F88800E06F9F
:100AF000B84204D1E86840F48010E86007E040455F
:100B000005D10121201D01F05DFC00B106462088C1
:100B1000400413D5D5F88800D4F8801020F0405058
:100B20000843C5F88800D4F88000B0F1805F05D193
:100B30000221201D01F046FC00B106462068C003DA
:100B400008D5D5F89C00D4F8841020F004000843A0
:100B5000C5F89C002068800208D5D5F89C00D4F820
:100B6000881020F018000843C5F89C002068C001D8
:100B700010D5D5F89C0054F88C1F20F44010084381
:100B8000C5F89C002068B0F5001F03D1E86840F468
:100B90008010E860304603E0001002400070004022
:100BA00000F000B818BCBDE8E08F00002DE9F04768
:100BB0000E4605004FF000077ED0DFF85881D8F8C8
:100BC000000000F00F00B0420CD2D8F8001021F065
:100BD0000F013143C8F80010D8F8000000F00F00F2
:100BE000B04271D128784C4CC0074BD06868DFF810
:100BF0002C9103281ED002282ED0002820682ED049
:100C00004005002860DA00F0B3F8484506D9A0682E
:100C100020F0F00040F08000A0608027A0686968A4
:100C200020F003000843A060FFF7B4FC814641F2C6
:100C3000883A20E02068800146D501F0EBFC484569
:100C4000ECD9A06810F0F00FE1D028788007E5D546
:100C5000A8680028DBD0E1E720688003D1E780079F
:100C6000CFE700BFFFF796FCA0EB0901514502D981
:100C70000320BDE8F087A068696800F00C00B0EBC5
:100C8000810FEFD12878800705D5A068A96820F0EA
:100C9000F000084304E0802F03D1A06820F0F000AA
:100CA000A060D8F80010404601F00F01B1420DD904
:100CB000016821F00F0100E006E0314301600068A7
:100CC00000F00F00B04201D00120D2E728784007A1
:100CD00005D5A068E96820F4E0600843A0602878A2
:100CE000000706D5A068296920F4605040EAC100D9
:100CF000A06000F03DF8A168094AC1F30311515CFE
:100D000001F01F01C84007490860BDE8F047002016
:100D1000FFF75EBC002002400010024000B4C40493
:100D20006C380008280100200548064900688968D9
:100D3000054AC1F30221515C01F01F01C840704710
:100D40002801002000100240AC3800080548064980
:100D500000688968054AC1F3C221515C01F01F0196
:100D6000C84070472801002000100240AC3800083D
:100D700070B52549002318468A68CC6812F00C0229
:100D800004F00306214C4FEA640509D00C2A05D073
:100D9000042A26D0082A00D1284670BD012E10D181
:100DA0000B681B0704D4D1F89430C3F3032302E08B
:100DB0000B68C3F30313164E56F823307AB10C2A8E
:100DC000EBD1C86800F00302C868C0F30310401CF0
:100DD000022A08D0032A09D0B3FBF0F008E0184635
:100DE00070BD204670BDB4FBF0F001E0B5FBF0F043
:100DF000CA68C968C2F306225043C1F34161491C65
:100E00004900B0FBF1F070BD001002400024F40076
:100E10007C3800082DE9F84305007CD0F84CA06828
:100E200000F00C06E06800F003072878C00662D5E1
:100E300076B10C2E01D1012F0AD0A86900282068B4
:100E400078D040F001002060FFF7A4FB804659E015
:100E50002068800702D5A8690028DED0296A2068AA
:100E6000000703D5206800F0F00004E0D4F89400F7
:100E7000F02202EA1010814216D9084601F004FC63
:100E8000002848D1206840F0080020602068296AC6
:100E900020F0F000084320606068E96920F47F409A
:100EA00040EA0120606015E0206840F00800206002
:100EB0002068296A20F0F000084320606068E96932
:100EC00020F47F4040EA01206060286A01F0DCFBEA
:100ED0000028D6D1FFF74CFFA168CA4AC1F303111D
:100EE000515C01F01F01C840C74908600020FFF7AE
:100EF0006FFB00287ED12EE0FFF74CFBA0EB080033
:100F0000022878D820688007F6D5206840F00800CD
:100F10002060206801E0BBE00CE0296A20F0F000CE
:100F2000084320606068E96920F47F4040EA0120BE
:100F3000606010E020F001002060FFF72BFB80468E
:100F400006E000BFFFF726FBA0EB08000228D8D878
:100F500020688007F6D42878C00740D0082E18D023
:100F60000C2E01D1032F14D06868B0F5803F17D044
:100F7000B0F5A02F206817D020F4803020602068C2
:100F800020F4802020606868E0B1FFF703FB804612
:100F900014E02068800322D56868002878D01EE01D
:100FA000206840F48030EDE740F480202060F7E7CF
:100FB000FFF7F0FAA0EB08006428A2D820688003AD
:100FC000F6D50CE0FFF7E6FA804605E0FFF7E2FA17
:100FD000A0EB0800642894D820688003F6D4287811
:100FE00080073BD5042E11D00C2E01D1022F0DD03D
:100FF000E86801E05EE1B8E0002820681ED040F417
:1010000080702060FFF7C6FA07460CE020684005B4
:101010000CD5E8680028C1D008E000BFFFF7BAFA95
:10102000C01B022893D820684005F7D56068297C4A
:1010300020F0FE4040EA016060600FE020F4807024
:101040002060FFF7A7FA074605E000BFFFF7A2FA06
:10105000C01B0228B1D820684005F7D428780007C3
:1010600029D568690028D4F8940012D040F0010016
:10107000C4F89400FFF78EFA074604E0FFF78AFAF7
:10108000C01B022871D8D4F894008007F6D512E06E
:1010900017E120F00100C4F89400FFF77BFA07463F
:1010A00005E000BFFFF776FAC01B02285DD8D4F830
:1010B00094008007F6D42878400766D5A06D0027F5
:1010C000C00008D4A06D40F08050A065A06D01273D
:1010D00000F0805000904D480168C90512D40168A5
:1010E000814641F480710160FFF754FA804605E0C3
:1010F000FFF750FAA0EB0800022836D8D9F8000014
:10110000C005F5D5A868012816D00528D4F89000A8
:1011100017D020F00100C4F89000D4F8900020F01F
:10112000040000BFC4F89000A86841F28839C0B13B
:10113000FFF730FA80460FE0D4F8900040F001004D
:10114000F0E740F00400C4F89000F5E7FFF722FA5A
:10115000A0EB0801494508D8D4F890008007F5D5E0
:101160000EE0FFF717FA804606E07CE0FFF712FA80
:10117000A0EB0801494576D8D4F890008007F5D453
:101180001FB1A06D20F08050A0652878800628D57A
:10119000686A0028D4F8980012D040F00100C4F822
:1011A0009800FFF7F7F9074605E000BFFFF7F2F9EF
:1011B000C01B02287DD8D4F898008007F6D510E02F
:1011C00020F00100C4F89800FFF7E4F9074604E0B6
:1011D000FFF7E0F9C01B02286BD8D4F8980080070D
:1011E000F6D4A86AF0B30C2E6BD00228206820F049
:1011F000807020600CD0206810F0205F47D04AE05B
:10120000001002406C3800082801002000700040E7
:10121000FFF7C0F9064604E0FFF7BCF9801B02287F
:1012200047D820688001F7D4286B55F82C1F00019F
:1012300010380843298A244A490802EB4151AA6818
:1012400041EA02210843297D4FF07E42490802EB22
:1012500041610843297B40EAC160E060206840F0BA
:10126000807001E02BE024E02060E06840F08070B6
:10127000E060FFF78FF9054605E000BFFFF78AF948
:10128000401B022815D820688001F7D517E0E068D8
:1012900020F00300E060E0680C490840E060FFF7E0
:1012A00079F9054608E000BFFFF774F9401B0228F2
:1012B00002D90320BDE8F88320688001F4D400201F
:1012C000F8E70120F6E700000000E0FFFFFFEEFE78
:1012D00010B5401EB0F1807F01D3012010BD4FF04A
:1012E000E02460610F21601701F05BF80020A0612D
:1012F00007202061002010BD704770477047000034
:1013000070B590F83C20012A24D0012480F83C409C
:10131000022280F83D200268536895680E4EB24262
:1013200002D00E4EB24203D123F470064B68334311
:1013300023F070060B688968334325F08005294344
:1013400053600268916080F83D40002180F83C10B5
:10135000084670BD022070BD002C014000340140E1
:1013600010B5040003D094F83D0010B107E001204F
:1013700010BD002084F83C00204600F00DF802204B
:1013800084F83D00211D206801F01CFA012084F83A
:101390003D00002010BD000008B500680B498842E0
:1013A00012D10B48816D41F002018165806D0022F0
:1013B00000F00200009011461D20FFF743F9BDE840
:1013C00008401D20FFF732B908BD000000040040AE
:1013D0000010024070B5044690F83C00012817D078
:1013E000012584F83C50022084F83D002068826882
:1013F000324E324022F47F4282600868502839D051
:101400000DDC202855D005DC98B3102843D150E0DE
:10141000022070BD30284CD040283CD141E06028EB
:1014200030D070280CD0B0F5805F03D0B0F5005FED
:1014300031D112E020688168204A7032114016E0F4
:10144000CB68D1E90121206801F01CFA2168886885
:10145000304040F0770088601DE0CB68D1E9012181
:10146000206801F00FFA2068816841F480418160B2
:1014700011E01EE0CA684968206801F015FA5021A1
:10148000206806E0CA684968206801F01EFA6021F9
:10149000206801F001FA84F83D50002084F83C00F7
:1014A00070BDCA684968206801F0FEF940212068D3
:1014B000EFE7226801461046EBE7000088FFFEFFD9
:1014C000704770B50446006801694FF00005C943D4
:1014D000890715D4C168C943890711D4E91E016180
:1014E00001202077206880698007204602D0FFF71E
:1014F000E7FF04E000F0A7F8204600F0A5F8257704
:1015000020680169C943490717D4C168C94349071D
:1015100013D46FF0040101610220207720688069F4
:1015200010F4407F204602D0FFF7CAFF04E000F02D
:101530008AF8204600F088F8257720680169C943B9
:10154000090716D4C168C943090712D46FF008010E
:101550000161042020772068C0698007204602D0FE
:10156000FFF7AEFF04E000F06EF8204600F06CF8E4
:10157000257720680169C943C90617D4C168C943E2
:10158000C90613D46FF0100101610820207720688C
:10159000C06910F4407F204602D0FFF791FF04E0BD
:1015A00000F051F8204600F04FF8257720680169D7
:1015B000C943C90708D1C168C943C90704D1891EF5
:1015C0000161204600F041F820680169C94309061D
:1015D00009D4C168C943090605D46FF080010161CF
:1015E0002046FFF78AFE20680169C943C90509D46E
:1015F000C168C943090605D46FF4807101612046B2
:10160000FFF77AFE20680169C943490609D4C16819
:10161000C943490605D46FF040010161204600F03E
:1016200015F820680169C94389060BD4C168C9430C
:10163000890607D46FF0200101612046BDE87040A3
:10164000FFF75CBE70BD704770477047704790F8F9
:101650007C10012918D0012180F87C10242180F809
:101660007D1050F8601B0A680B6823F001030B60C3
:1016700022F000510022426050F8603C19602021A5
:10168000417702771046704702207047704770B567
:10169000044690F87C0001281DD0012084F87C00CD
:1016A000242084F87D0020680568026822F0010289
:1016B00002602068826822F060620A4382602046ED
:1016C00001F016F920680560202084F87D000020D4
:1016D00084F87C0070BD022070BD70B5044690F89F
:1016E0007C0001281DD0012084F87C00242084F88F
:1016F0007D0020680568026822F00102026020680F
:10170000826822F060420A438260204601F0F0F8CD
:1017100020680560202084F87D00002084F87C008B
:1017200070BD022070BD7047704770472DE9F041D1
:1017300003680446D8691A68996810F00F0F4FF0D3
:10174000000569D05E4E02F490770E4037437DD09D
:10175000C70709D0D70507D501271F62D4F8803005
:1017600043F00103C4F8803083070AD5CB0708D0C3
:10177000276802233B62D4F8803043F00403C4F8A6
:10178000803043070AD5CB0708D0276804233B6283
:10179000D4F8803043F00203C4F8803003070CD53E
:1017A00002F02003334308D0266808233362D4F8BC
:1017B000803043F00803C4F88030D4F88030002B28
:1017C0003CD0800609D502F0200001F0805108438A
:1017D00003D0E16E09B120468847D4F880000007A5
:1017E00003D42068806840062AD5204601F052F9CB
:1017F0002068816849061ED5816821F0400181601A
:10180000A06FC0B12F498163A06FFEF799FD00283A
:1018100014D0A06F816B0AE0860617D502F020066F
:1018200001F080573E4311D0E16E24E02046BDE830
:10183000F04108470AE02046FFF777FFBDE8F08156
:101840002046FFF772FFC4F88050F7E7C60209D5BB
:101850004E0207D54FF4801018622046BDE8F041D3
:10186000FFF762BF060609D502F0800601F4000109
:101870000E4303D0216F0029D8D1DFE741060DD5F3
:1018800051060BD51968204621F04001196020212E
:1018900084F87D10256700F0D9F9CFE7010206D55D
:1018A000510004D52046BDE8F041FFF73CBFC00120
:1018B000C4D5002AC2DA2046BDE8F041FFF7E6BEF3
:1018C000010000107F2A000810B5040003D094F82E
:1018D0007D0010B107E0012010BD002084F87C00DD
:1018E000204600F027F8242084F87D002068016855
:1018F00021F001010160204601F0DEF90128EBD062
:10190000A06A10B1204601F027F82068416821F450
:10191000904141602068816821F02A01816020683F
:10192000016841F0010101602046BDE8104001F06E
:1019300077B80000F0B587B0044614216846FEF77A
:1019400094FC284F266800222749022303240725F8
:101950004FF09040BE421FD10E6E46F480460E6698
:101960000E6E06F480460596CE6C46F00106CE64F7
:10197000C96C02AE01F0010105916102CDE90013CD
:1019800086E834006946FEF721FD00221146252035
:10199000FEF758FE252021E0144FBE4220D18E6D67
:1019A00046F400368E658E6D06F400360596CE6CD4
:1019B00046F00106CE64C96C02AE01F0010105914A
:1019C0000C21CDE9001386E834006946FEF7FEFCE1
:1019D000002211462620FEF735FE2620FEF726FEC1
:1019E00007B0F0BD00380140001002400044004044
:1019F00070B590F87E30202B6BD1B9B1B2B190F8B0
:101A00007C30012B65D0012380F87C308165A0F803
:101A10005C20A0F85E200021C16683684FF48056E8
:101A2000FF24B34207D1036913B10CE0012070BD5C
:101A300040F2FF130DE07F251BB1B3F1805F05D0AD
:101A400009E00369B3B9A0F8604004E003698BB111
:101A50003F23A0F86030C0F88010222380F87E3049
:101A600003689C6844F001049C60436EB3F1005F1E
:101A700003D01CE0A0F86050EDE7B0F86830934266
:101A800015D88268B24201D1026972B1124AC266A7
:101A900080F87C1001680A6842F480720A6000686D
:101AA000816841F0805181600FE00C4AEFE7826865
:101AB000B24201D1026952B1094AC26680F87C1073
:101AC0000068016841F490710160002070BD054A12
:101AD000F3E7022070BD0000152C0008152B00084C
:101AE000B92B0008B92A000810B54FF47A742346C0
:101AF00009222249224800F051F80028F7D1234654
:101B0000032220491E4800F049F80028F7D11B495C
:101B100023460322C91E1A4800F040F80028F6D1D7
:101B200018481949007808702346092213491748B4
:101B300000F034F80028F7D1234603221449134853
:101B400000F02CF80028F7D10C4923460322C91EC7
:101B50000E4800F023F80028F6D10D480A490A3152
:101B6000007808700A390BA001F0EAFC0649BDE8CC
:101B700010400A3107A001F0E3BC0000130100206F
:101B8000840100201C0100203001002008020020F8
:101B90001F01002025730D0A000000002DE9F84305
:101BA000044690F87D001F4616460D4620284BD16E
:101BB000C5B1BEB194F87C00012845D0012004F8DD
:101BC0007C0F4FF00008C4F8048021206070FEF7FD
:101BD000E1FC24F8286C814624F8266C4FF48056EA
:101BE0007C3C15E00120BDE8F8838021204601F00F
:101BF00020FCD8B9A068B04201D12069C0B115F865
:101C0000010B21680885B4F85600401EA4F8560060
:101C1000B4F856004B464FF0000200970028E4D17C
:101C20004FF04001204601F004FC30B10320DAE718
:101C300035F8020BC0F30800E3E7202084F87D00AC
:101C400084F87C800020CEE70220CCE77047FEE7D6
:101C500070B53D4D002220212846FEF796FC002459
:101C6000092001F03BFC002001F038FC641CE4B2C8
:101C70000C2CF5D3012220212846FEF786FC1420E7
:101C800001F0ECFC002220212846FEF77EFC002417
:101C90000A2001F023FC032001F020FC641CE4B2C4
:101CA0000C2CF5D3012220212846FEF76EFC1420CF
:101CB00001F0D4FC002220212846FEF766FC002417
:101CC0000B2001F00BFC072001F008FC641CE4B2BF
:101CD0000C2CF5D3012220212846FEF756FC1420B7
:101CE00001F0BCFC002220212846FEF74EFC002417
:101CF0000C2001F0F3FB012001F0F0FB641CE4B2C6
:101D00000C2CF5D3012220212846FEF73EFC14209E
:101D100001F0A4FC002220212846FEF736FC002416
:101D20000F2001F0DBFB002001F0D8FB641CE4B2C3
:101D30000C2CF5D3012220212846FEF726FCBDE815
:101D40007040142001F08ABC001400482DE9F041D5
:101D500086B014216846FEF788FA2F48C16C41F01E
:101D60002001C164C16C01F020010591C16C41F0FA
:101D70000101C164C16C01F001010591C16C41F028
:101D80000201C164C16C01F002010591C16C41F016
:101D90000401C164C06C214D00F0040005900122D3
:101DA00030212846FEF7F1FBDFF8748000224FF463
:101DB00085414046FEF7E9FB1A4F00228021384654
:101DC000FEF7E3FB01243020CDE900040326CDE932
:101DD000024669462846FEF7F9FA4FF4814000258D
:101DE0008DE83100694640460395FEF7EFFA802002
:101DF0008DE83100694638460395FEF7E7FA600240
:101E0000CDE90004CDE9024669464046FEF7DEFA18
:101E100006B0BDE8F0810000001002400014004848
:101E2000000400480008004810B588B00024184895
:101E30000094019402940394049405941349069425
:101E4000016041F61F41C0E9011442F20F71C0E97F
:101E500003148461FFF784FA08B1FEF770FA4FF4B7
:101E60008050009069460A48FFF7B4FA08B1FEF7BF
:101E700066FA049404A906480694FFF741FA00287C
:101E800001D0FEF75CFA08B010BD0000000400406D
:101E900044010020184810B5164901604FF416514E
:101EA0004160002181600C22C160C0E9041281619F
:101EB000C161016241628162FFF706FD08B1FEF770
:101EC0003EFA00210C48FFF708FC08B1FEF737FA8C
:101ED00000210948FFF7DBFB08B1FEF730FA06489E
:101EE000FFF7B5FB002803D0BDE81040FEF727BA86
:101EF00010BD00000038014084010020184810B5D2
:101F0000164901604FF416514160002181600C2296
:101F1000C160C0E904128161C161016241628162F4
:101F2000FFF7D2FC08B1FEF70AFA00210C48FFF7D0
:101F3000D4FB08B1FEF703FA00210948FFF7A7FB1D
:101F400008B1FEF7FCF90648FFF781FB002803D033
:101F5000BDE81040FEF7F3B910BD0000004400409A
:101F600008020020F0B5FF48FF4C99B0017804F159
:101F7000400303F10800A4F10805A0F110026E4629
:101F8000312906D0322974D0332971D034296DD14A
:101F900053E10021475C7754491CC9B20829F9D3A1
:101FA000002106EB010C5F5C491CC9B28CF808707B
:101FB0000829F6D300217718435C491CC9B23B7449
:101FC0000829F8D300217718435C491CC9B23B7635
:101FD0000829F8D300203318115C401CC0B283F8E4
:101FE00020100828F7D300203218215C401CC0B212
:101FF00082F828100828F7D300203218295C401CEA
:10200000C0B282F830100828F7D3D74900208039B1
:1020100033180A5C401CC0B283F838200828F7D374
:10202000D148002178307318425C491CC9B283F84A
:1020300040200829F7D300217318425C491CC9B21B
:1020400083F848200829F7D300217318425C491C03
:10205000C9B283F850200829F7D300217318425CD5
:10206000491CC9B283F858200829F7D364E100E07D
:1020700071E00021475C7754491CC9B20829F9D3A3
:10208000002106EB010C5F5C491CC9B28CF808709A
:102090000829F6D3B44B0021503306EB010C5F5CEA
:1020A000491CC9B28CF810700829F6D300217718A2
:1020B000435C491CC9B23B760829F8D30020331889
:1020C000115C401CC0B283F820100828F7D3002010
:1020D0003218215C401CC0B282F828100828F7D3BF
:1020E00000203218295C401CC0B282F83010082849
:1020F000F7D39D490020783933180A5C401CC0B2E0
:1021000083F838200828F7D39748002180307318C7
:10211000425C491CC9B283F840200829F7D300214A
:102120007318425C491CC9B283F848200829F7D3C8
:1021300000217318425C491CC9B283F85020082959
:10214000F7D300217318425C491CC9B283F85820A8
:102150000829F7D3F0E00021445C7454491CC9B24B
:102160000829F9D3002175185C5C491CC9B22C728E
:102170000829F8D37C4B0021583375185C5C491C46
:10218000C9B22C740829F8D300217418435C491C87
:10219000C9B223760829F8D300203318115C401CFB
:1021A000C0B283F820100828F7D36F4900201031FF
:1021B00033180A5C401CC0B283F828200828F7D3E3
:1021C00069490020083133180A5C401CC0B283F80A
:1021D00030200828F7D364490020703933180A5C8E
:1021E000401CC0B283F838200828F7D35E4800218D
:1021F00088307318425C491CC9B283F84020082912
:10220000F7D300217318425C491CC9B283F84820F7
:102210000829F7D300217318425C491CC9B283F81E
:1022200050200829F7D300217318425C491CC9B219
:1022300083F858200829F7D37EE04B4900206839FD
:102240000A5C3254401CC0B20828F9D34649002029
:10225000603933180A5C401CC0B21A720828F8D3DF
:1022600041490020583933180A5C401CC0B21A7426
:102270000828F8D33C490020503933180A5C401C28
:10228000C0B21A760828F8D33749002048393318E5
:102290000A5C401CC0B283F820200828F7D33249DA
:1022A0000020403933180A5C401CC0B283F8282053
:1022B0000828F7D32C490020383933180A5C401C11
:1022C000C0B283F830200828F7D3274900203039DE
:1022D00033180A5C401CC0B283F838200828F7D3B2
:1022E00021490020283933180A5C401CC0B283F809
:1022F00040200828F7D31C490020203933180A5CF5
:10230000401CC0B283F848200828F7D316490020A3
:10231000183933180A5C401CC0B283F850200828D2
:10232000F7D311490020103933180A5C401CC0B2A1
:1023300083F858200828F7D30C4F012400222021CD
:102340003846FEF722F90025204601F0C7F8142090
:1023500001F084F9C5F10B0006EBC000204410F831
:10236000010C05E03001002080000020001400482E
:1023700001F0B4F8142001F071F96D1CEDB20C2DD0
:10238000E2D3012220213846FEF7FFF8641CE4B2B4
:10239000092CD3D36420FEF70BF819B0F0BDFEE78B
:1023A00070470907090E002806DA00F00F0000F157
:1023B000E02080F8141D704700F1E02080F8001440
:1023C000704770472DE9F041434C05468846E06868
:1023D00000268107286806D0E16801F003018142E8
:1023E0000FD170B11AE0012804D0022805D00328CB
:1023F00007D108E02168890701E021684905002923
:1024000007DB012664E02168890302D421684903BF
:10241000F5E7E16821F003010143E160206820F065
:1024200080602060FEF7B6F8074604E0FEF7B2F8D9
:10243000C01B022843D820680001F7D46FF00F00BA
:10244000B8F1000F1BD0B8F1010F24D0297D490845
:10245000420502EB4161AA6841EA02216A6800EB89
:102460000210014320691D4A104001432161206888
:1024700040F080602060FEF78DF8074621E0A968F3
:102480002A7B090241EAC2616A6800EB021001433B
:102490002069134AE8E7298A124A490802EB4151A8
:1024A000AA6841EA02216A6800EB02100143206930
:1024B0000D4AD9E7FEF76EF8C01B022801D90326A2
:1024C00006E020680001F5D52069A969084320616C
:1024D0003046BDE8F0810000001002400F80FFF997
:1024E0000F80FF070000E0FF0F809FFF2DE9F04104
:1024F000434C05468846E06800268107286806D0D8
:10250000E16801F0030181420FD170B11AE00128A6
:1025100004D0022805D0032807D108E021688907E4
:1025200001E021684905002907DB012664E02168F4
:10253000890302D421684903F5E7E16821F003012A
:102540000143E160206820F080502060FEF722F80F
:10255000074604E0FEF71EF8C01B022843D8206897
:102560008000F7D46FF00F00B8F1000F1BD0B8F166
:10257000010F24D0297D4908420502EB4161AA6878
:1025800041EA02216A6800EB0210014360691D4ABA
:10259000104001436161206840F080502060FDF7E9
:1025A000F9FF074621E0A9682A7B090241EAC261D6
:1025B0006A6800EB021001436069134AE8E7298A60
:1025C000124A490802EB4151AA6841EA02216A68AD
:1025D00000EB0210014360690D4AD9E7FDF7DAFF0D
:1025E000C01B022801D9032606E020688000F5D52B
:1025F0006069A969084360613046BDE8F081000068
:10260000001002400F80FFF90F80FF070000E0FF7D
:102610000F809FFF18480022C16801F003010129C3
:102620000DD10168090704D4D0F89410C1F3032137
:1026300002E00168C1F30311104A52F82120C16879
:1026400001F00303C168C1F30311491C022B02D03E
:10265000032B03D101E00A4A00E00A4AB2FBF1F180
:10266000C268C068C2F306225143C0F34160401CF7
:102670004000B1FBF0F07047001002407C380008C9
:102680000024F40000127A00F8B51A4D0646002422
:10269000A86DC00002D5FEF765F80DE0A86D40F00A
:1026A0008050A865A86D00F080500090FEF75AF8A1
:1026B000A96D21F08051A965B0F5007F03D0802E6F
:1026C00006D3022407E0802E05D9A02EF9D801E018
:1026D000702E00D101240848016821F00F01214328
:1026E0000160006800F00F00A04201D00120F8BD99
:1026F0000020F8BD00100240002002407047FDF7A6
:102700004FBF30B5BBB0442125A8FDF7AEFD142165
:1027100036A8FDF7AAFD94216846FDF7A6FD4FF403
:102720000070FDF7C1FF1020259000246020CDE946
:102730002C4001212B910220CDE92F013191242140
:10274000CDE932103490359025A8FEF763FB0F20B9
:1027500003253690CDE937543994294636A83A9462
:10276000FEF724FA0F94684600951094FEF70EF8D1
:102770003BB030BD0D48016841F4700101600C4868
:10278000016841F001010160002181600268094B8C
:102790001A4002608214C260026822F48022026041
:1027A00081610249C00380390860704788ED00E00C
:1027B00000100240FFFFF6EA0148FEF782BE00006B
:1027C000440100202DE9F0470268264B264D274E94
:1027D000274F284C4FF0804A984209D0504507D0E7
:1027E000A84205D0B04203D0B84201D0A04204D1E3
:1027F00022F0700C4A6842EA0C02DFF87CC0DFF875
:102800007C80DFF87C9098420FD050450DD0A842D4
:102810000BD0B04209D0B84207D0A04205D06045E5
:1028200003D0404501D0484503D122F44075CA6821
:102830002A434D6922F080022A4302608A68C262FC
:102840000A688262984207D0A04205D0604503D052
:10285000404501D0484501D1096901630121416129
:10286000BDE8F087002C0140000400400008004053
:10287000000C004000340140004001400044014091
:102880000048014010B5846842EA032224F47F44E2
:102890000A432243826010BD826822F070020A431C
:1028A00042F007018160704710B5036A046A24F0A2
:1028B00001040462846924F0F00444EA021423F061
:1028C0000A020A438461026210BD10B5036A23F054
:1028D000100303628369046A23F4704343EA0232FB
:1028E00024F0A00343EA01118261016210BD0000DF
:1028F0003FB515A2D2E90012CDE9001214A2D2E927
:102900000012CDE90212416EC9B102689168926865
:10291000C1F34261520F1DF80240E406250E02ACDD
:10292000A25CB5FBF2F2A0F86A201DF80120615C00
:10293000D206120EB2FBF1F1A0F868103FBD0121E2
:10294000A0F86A10F8E70000010101030701000088
:10295000080402040801000090F82810C90706D0F6
:1029600001684A68C36A22F400321A434A6090F848
:102970002810890706D501684A68036B22F4803263
:102980001A434A6090F82810490706D501684A683A
:10299000436B22F480221A434A6090F828100907FA
:1029A00006D501684A68836B22F400421A434A60E4
:1029B00090F82810C90606D501688A68C36B22F40E
:1029C00080521A438A6090F82810890606D501685B
:1029D0008A68036C22F400521A438A6090F8281027
:1029E000490611D501684A68436C22F480121A43E3
:1029F0004A60416CB1F5801F06D101684A68836C5A
:102A000022F4C0021A434A6090F82810090606D53D
:102A100001684A68C06C22F4002202434A60704791
:102A2000F8B500260446C0F88060FDF7B3FD054602
:102A3000206800686FF07E47000708D52B4600220B
:102A40004FF400112046009700F0F3FC60B92068B5
:102A5000006840070AD52B4600224FF4800120462B
:102A6000009700F0E6FC08B10320F8BD202084F8B0
:102A70007D0084F87E0084F87C600020F8BD10B5ED
:102A8000806A0021A0F85E10A0F85610FEF74DFEF7
:102A900010BD000001680A6822F490720A600168A3
:102AA0008A68044B1A408A60202180F87E10002139
:102AB000C1667047FEFFFFEF10B5B0F8602090F8D8
:102AC0007E300168222B04D0088B40F00800088378
:102AD00010BD898C836D11401980816D891C8165C1
:102AE000B0F85E10491E0904090CA0F85E10EFD181
:102AF00001680A6822F490720A6001688A6822F00C
:102B000001028A60202180F87E100021C166FEF754
:102B1000EBFF10BD70B50446B0F8606090F87E0021
:102B2000222805D02068018B41F00801018370BD87
:102B300094F8685023E02068808CA16D30400880B4
:102B4000A06D801CA065B4F85E00401EA4F85E0075
:102B5000B4F85E0088B92068016821F480710160D2
:102B600020688168124A11408160202084F87E002C
:102B70000020E0662046FEF7B7FF6D1EEDB2002D87
:102B8000D9D1B4F85E000028D1D0B4F85E00B4F812
:102B900068108842CBD22068816821F08051816022
:102BA0000448E0662068016841F02001016070BDC2
:102BB000FEFFFFEFB92A000810B5B0F8602090F8CA
:102BC0007E300168222B04D0088B40F00800088377
:102BD00010BD898C1140826D531C83651170B0F853
:102BE0005E10491E0904090CA0F85E10F0D10168BE
:102BF0000A6822F490720A6001688A6822F0010271
:102C00008A60202180F87E100021C166FEF76CFFEB
:102C100010BD000070B50446B0F8606090F87E000A
:102C2000222805D02068018B41F00801018370BD86
:102C300094F8685022E02068818CA06D3140421CDD
:102C4000A2650170B4F85E00401EA4F85E00B4F8FE
:102C50005E0088B92068016821F4807101602068F5
:102C60008168134A11408160202084F87E00002092
:102C7000E0662046FEF738FF6D1EEDB2002DDAD17A
:102C8000B4F85E000028D2D0B4F85E00B4F8681042
:102C90008842CCD22068816821F08051816005484B
:102CA000E0662068016841F02001016070BD00000D
:102CB000FEFFFFEFB92B00082DE9F05F0446016825
:102CC00080682369E6691843636910253343184314
:102CD000636E00270343F54A0868F54E30401843F9
:102CE000086020684168E36821F44051194341605D
:102CF0002168A069914201D0236A18438B68ED4E88
:102D0000334003438B602068C16A636A21F00F017E
:102D10001943C162E949E84B20688E1598420DD1EC
:102D2000D1F8881011F0030106D0012959D00229E9
:102D300055D0032958D156E0012555E0E04B984283
:102D40000BD1D1F8881011F00C0146D0042948D0DD
:102D5000082944D00C2947D145E0DA4B98420BD1E1
:102D6000D1F8881011F0300137D0102939D020293E
:102D700035D0302938D136E0D34B98420BD1D1F839
:102D8000881011F0C00128D040292AD0802926D0EF
:102D9000C02929D127E0CD4B98420DD1D1F8881018
:102DA00011F4407119D0B1421BD0B1F5007F16D09B
:102DB000B1F5407F18D116E0904215D1D1F88810B6
:102DC00011F4406109D0B1F5806F0AD0B1F5006F00
:102DD00005D0B1F5406F07D105E0002504E00225DC
:102DE00002E0042500E00825DFF8E4A24FF0000926
:102DF0004FF4004B90426ED135B1022D21D0042DFD
:102E000051D0082D68D16EE0FDF78EFF4DE001280E
:102E100051D0022851D0032851D0042851D0052880
:102E200051D0062851D0072851D0082851D0092860
:102E300053D00A2853D00B2853D03AE0B1FBF0F01E
:102E40006CE0606AA8B1012817D0022817D00328C7
:102E500017D0042817D0052817D0062817D0072820
:102E600017D0082817D0092817D00A2817D00B2800
:102E700017D00120BAFBF0F050E00220FAE704205E
:102E8000F8E70620F6E70820F4E70A20F2E70C202E
:102E9000F0E71020EEE72020ECE74020EAE7802072
:102EA000E8E73046E6E7FDF763FF0146606A002881
:102EB000ADD10120C2E70220C0E70420BEE7062012
:102EC000BCE70820BAE70A20B8E70C20B6E71020D4
:102ED000B4E72020B2E732E142E04020AEE78020B4
:102EE000ACE73046AAE7606AA8B1012822D00228E0
:102EF00022D0032822D0042822D0052822D0062858
:102F000022D0072822D0082822D0092822D00A2837
:102F100022D00B2822D00120BBFBF0F0002820D0CB
:102F20006168884601EB4101814219D8B0EB083F46
:102F300016D817E00220EFE70420EDE70620EBE7C4
:102F40000820E9E70A20E7E70C20E5E71020E3E79F
:102F50002020E1E74020DFE78020DDE73046DBE7A7
:102F6000012710E27DB3022D75D0042D74D0082DF9
:102F7000F6D1606AA8B101286FD002286ED003286C
:102F80006DD004286CD005286BD006286AD007289D
:102F900069D0082868D0092867D00A287ED00B2875
:102FA00000D0012632464D46002358460021FDF749
:102FB00021F9090241EA106102024FEA5800101893
:102FC000694142463EE0FFE7FDF7AEFE84464D46CE
:102FD00049469AE0012815D0022815D0032815D0BB
:102FE000042815D0052815D0062815D0072815D097
:102FF000082815D0092815D00A2815D00B2814D078
:10300000012612E0022610E004260EE006260CE05F
:1030100008260AE00A2608E00C2606E0102604E04E
:10302000202602E0402600E080263246002360464B
:10303000FDF7E0F80902626841EA106103025008F6
:10304000181869410023FDF7D5F8224AA0F5407110
:1030500091426FD984E709E052E05BE05CE05DE01B
:103060005EE05FE060E061E062E064E0606AB8B1A9
:10307000012831D0022831D0032831D0042831D0A2
:10308000052831D0062831D0072831D0082831D082
:10309000092831D00A2831D00B2800E04DE000D0BB
:1030A000012632464D46002350467FE7008000400F
:1030B000F369FFCFFFF4FF11003801400010024018
:1030C0000044004000480040004C004000500040D8
:1030D0000024F400FFFC0F000226E2E70426E0E7EC
:1030E0000626DEE70826DCE70A26DAE70C26D8E71C
:1030F0001026D6E72026D4E74026D2E78026D0E760
:10310000FDF736FE4D4649468446606A00283FF486
:1031100077AF5FE7022645E7042643E7062641E747
:1031200008263FE70A263DE70C263BE7102639E74D
:10313000202637E725E1402634E7802632E7E0699C
:103140004FF6EF7858456ED1092D83D2DFE805F0B0
:1031500006093C0580050505830001E7FDF7E4FD50
:1031600001E0FDF7F3FD0146606AA8B1012815D022
:10317000022815D0032815D0042815D0052815D00D
:10318000062815D0072815D0082815D0092815D0ED
:103190000A2815D00B2814D0012612E0022610E0D0
:1031A00004260EE006260CE008260AE00A2608E0BF
:1031B0000C2606E0102604E0202602E0402600E06F
:1031C0008026B1FBF6F01AE0606AA8B101282BD086
:1031D00002282BD003282BD004282BD005282BD055
:1031E00006282BD007282BD008282BD009282BD035
:1031F0000A282BD00B2800D00126BAFBF6F041009C
:10320000606801EB5001B1FBF0F080B2A0F1100159
:103210004145A2D84FF6F0710140C0F3420001438E
:103220002068C160AFE046E00226E6E70426E4E756
:103230000626E2E70826E0E70A26DEE70C26DCE7BA
:103240001026DAE72026D8E74026D6E78026D4E7FE
:10325000FDF78EFD87E7606AA8B1012817D0022824
:1032600017D0032817D0042817D0052817D0062810
:1032700017D0072817D0082817D0092817D00A28F0
:1032800017D00B2800D00126BBFBF6F0B7E70226CB
:10329000FAE70426F8E70626F6E70826F4E70A2602
:1032A000F2E70C26F0E71026EEE72026ECE74026B2
:1032B000EAE78026E8E7092DBFF4CCAEDFE805F0A9
:1032C00006093C0583050505860049E6FDF72CFD4A
:1032D00001E0FDF73BFD0146606AA8B1012815D069
:1032E000022815D0032815D0042815D0052815D09C
:1032F000062815D0072815D0082815D0092815D07C
:103300000A2815D00B2814D0012612E0022610E05E
:1033100004260EE006260CE008260AE00A2608E04D
:103320000C2606E0102604E0202602E0402600E0FD
:103330008026B1FBF6F11AE0606AA8B101282ED010
:1033400002282ED003282ED004282ED005282ED0D7
:1033500006282ED007282ED008282ED009282ED0B7
:103360000A282ED00B2800D00126BAFBF6F160689F
:1033700001EB5001B1FBF0F080B2A0F1100141452A
:10338000A3D82168C8600120A4F86A0024F8680F57
:103390003846C4F80490C4F8089000F047B80226F4
:1033A000E3E70426E1E70626DFE70826DDE70A264D
:1033B000DBE70C26D9E71026D7E72026D5E74026FD
:1033C000D3E78026D1E7FDF7D3FC84E7606AA8B194
:1033D000012817D0022817D0032817D0042817D0A7
:1033E000052817D0062817D0072817D0082817D087
:1033F000092817D00A2817D00B2800D00126BBFBBC
:10340000F6F1B4E70226FAE70426F8E70626F6E71F
:103410000826F4E70A26F2E70C26F0E71026EEE786
:103420002026ECE74026EAE78026E8E730BCBDE846
:10343000C09F2DE9F041984617460E460446069D6A
:103440001DE0681C1BD02DB1FDF7A4F8A0EB08000F
:10345000A84214D92068016821F4D0710160206865
:10346000816821F001018160202084F87D0084F8CA
:103470007E00002084F87C000320BDE8F0812068F5
:10348000C06936EA000004D00020B842D9D000203C
:10349000F3E70120F9E7000010B50548FEF746F90B
:1034A000BDE81040032203490148FEF7A1BA00001D
:1034B000840100201C01002010B50548FEF736F9F4
:1034C000BDE81040032203490148FEF791BA00000D
:1034D000080200201F010020FEE700002DE9F04156
:1034E0000824DFF85480154E0546A701002210215C
:1034F0003046FDF74AF8062000F0B0F805F08000ED
:10350000802801D010B106E0012200E000223946F7
:103510004046FDF73AF86806050E012210213046B4
:10352000FDF733F8062000F099F8641E14F0FF044C
:10353000DCD1BDE8F0810000000400480014004820
:103540000FB4054B10B503A9044A029800F017F810
:1035500010BC5DF814FB0000A93600082C01002007
:1035600002E008C8121F08C1002AFAD1704770474C
:10357000002001E001C1121F002AFBD170472DE994
:10358000F84F9946924688460546002706E02528CA
:103590000AD051464A4690476D1C7F1C2878002867
:1035A000F5D1384600F056B8002315F8011F18462B
:1035B0002E2915D115F8011F04232A290DD06FF0EB
:1035C0002F022978A1F13004092C09D800EB8000E2
:1035D00002EB400008446D1CF3E758F8040B6D1C27
:1035E0002A78002ADDD0632A07D0732A0FD010462C
:1035F00051464A4690477F1C2AE018F8042B8DF864
:10360000002000218DF801106E46012103E058F8DA
:10361000046B4FF0FF315A074FF0000401D409E06A
:10362000641C84420BDA8C42FADB325D002AF7D14B
:1036300005E0641C8C42FCDB305D0028F9D1274496
:1036400004E016F8010B51464A469047641EF8D232
:103650006D1CA3E718BCBDE8E08F00002DE9F04128
:103660004FF0E0240546A769FCF794FF064605EBFA
:10367000C500C500BD420BD9FCF78CFFB042FBD0A2
:103680000849781B0844A1698142FCD8BDE8F08153
:103690007D1BA069A842F9D9FCF77CFFB042F8D0A5
:1036A000F4E700004019010038B504468DF8000029
:1036B0000223012269460248FEF770FA204638BD0F
:1036C00084010020F0B599B0514900206E460A5C93
:1036D0003254401CC0B20828F9D34D4900200839A3
:1036E00033180A5C401CC0B21A720828F8D3484943
:1036F0000020103933180A5C401CC0B21A74082824
:10370000F8D343490020183933180A5C401CC0B272
:103710001A760828F8D33E490020403133180A5C55
:10372000401CC0B283F820200828F7D33849002075
:10373000303133180A5C401CC0B283F828200828B6
:10374000F7D3002033180A5C401CC0B283F8302045
:103750000828F7D32E490020383133180A5C401C62
:10376000C0B283F838200828F7D329480021483010
:103770007318425C491CC9B283F840200829F7D36A
:1037800000217318425C491CC9B283F848200829FB
:10379000F7D300217318425C491CC9B283F850204A
:1037A0000829F7D300217318425C491CC9B283F879
:1037B00058200829F7D3174F01240022202138462A
:1037C000FCF7E3FE00252046FFF788FE1420FFF7F4
:1037D00045FFC5F10B0006EBC000204410F8010CBA
:1037E000FFF77CFE1420FFF739FF6D1CEDB20C2DA6
:1037F000E9D3012220213846FCF7C7FE641CE4B25D
:10380000092CDAD36420FCF7D3FD19B0F0BD000019
:10381000B000002000140048FCF7CAFEFEF771FF5C
:10382000FEF794FAFEF700FBFEF734FBFEF766FBAB
:103830003220FCF7BDFDFEF70BFA032207490848CA
:10384000FEF7D6F8032207490748FEF7D1F8FFF73D
:1038500039FF00BFFEF786FBFCE700001C010020DB
:10386000840100201F010020080200200000000049
:10387000000000000102030406070809A0860100F9
:10388000400D0300801A060000350C0040420F0076
:1038900080841E0000093D0000127A000024F4001C
:1038A00000366E010048E801006CDC0200000000F8
:1038B00001020304D4380008000000203001000099
:1038C000E4020008D839000830010020600500003B
:1038D00070350008100A24FF107C365524483C1629
:1038E0007E1125427D684110FE7C447C38D6302014
:1038F000F820F926B6E9FFFE10107E101010FFE444
:10390000645677D55565CC10FF56FE04FF10307F06
:10391000495D7F5D555D837E427E7E10FF28C757DF
:10392000F526F62565D78430282C9ED252525F7D2D
:103930008186E8DFD4D5BFFF958CFE1212121614D3
:1039400010FFC47F89CC4C4CD5A7507E90FF28280F
:10395000498F5090FE31180AFF3020FF6444381C14
:10396000E23C19432816107C101FF536A464AA11F6
:1039700010A725A5B6A4443F10543830A0098E5096
:103980005FD4E0DF555F2B38440112381C0818085B
:1039900001121C28081824040810203C086D180483
:1039A00024181F4A2001180F3E44485060605048B8
:1039B0004410387CFE38011119CB15FF7F301010F0
:1039C0000A080CFEFFFE0C080D0AE0094D65737332
:0839D0006167653A53093D00EF
:04000005080001BD31
:00000001FF
